:020000040800F2
:100000009007002075080008490600084B06000804
:100010004F060008530600085706000800000000BD
:100020000000000000000000000000005B06000867
:100030005D060008000000005F0600086106000879
:100040008F0800088F0800088F0800088F08000834
:100050008F0800088F0800088F0800088F08000824
:100060008F0800088F0800088F0800088F08000814
:100070008F0800088F0800088F0800088F08000804
:100080008F0800088F0800088F0800088F080008F4
:100090008F0800088F0800088F0800088F080008E4
:1000A0008F0800088F0800088F0800088F080008D4
:1000B0008F080008B53800088F0800088F0800086E
:1000C0008F0800088F0800088F0800088F080008B4
:1000D0008F080008C72900088F0800088F0800084B
:1000E0008F0800088F0800088F0800088F08000894
:1000F0008F0800088F0800088F0800088F08000884
:100100008F0800088F0800088F0800088F08000873
:100110008F0800088F0800088F0800088F08000863
:100120008F0800088F0800088F0800088F08000853
:100130008F0800088F0800088F0800088F08000843
:100140008F0800088F0800088F0800088F08000833
:100150008F0800088F0800088F0800088F08000823
:100160008F0800088F0800088F0800088F08000813
:100170008F0800088F0800088F0800088F08000803
:100180008F0800088F08000800F002F800F03CF823
:100190000AA090E8000C82448344AAF10107DA45E2
:1001A00001D100F031F8AFF2090EBAE80F0013F0F8
:1001B000010F18BFFB1A43F001031847BC400100B0
:1001C000DC400100103A24BF78C878C1FAD8520741
:1001D00024BF30C830C144BF04680C6070470000C1
:1001E0000023002400250026103A28BF78C1FBD840
:1001F000520728BF30C148BF0B6070471FB503F0DE
:10020000A7FB1FBD10B510BD03F06FFB1146FFF734
:10021000F5FF00F069F903F08DFB03B4FFF7F2FF7F
:1002200003BC02F06DFB000010B5034605E0985CCE
:100230008C5CA04201D0002010BD101EA2F1010470
:10024000E2B2F4D10120F7E710B503F0E2F9E74993
:10025000087008460078E64909784840E34909787B
:100260000840E4490870E1480078E14909784840CD
:10027000DE4909788843E0490870DC480078DC49A9
:100280000870DC480078112818D2DFE800F0CA09AD
:100290001827363746556465748392939EADAE0039
:1002A000D6480078062809DA0120D549D34A1278C1
:1002B0008854D2480078401CD0490870B1E0CF483B
:1002C0000078062809DA0220CD49CC4A12788854F1
:1002D000CA480078401CC9490870A2E0C7480078A5
:1002E000062809DA0321C648C44A12788154C34853
:1002F0000078401CC149087093E092E0BF48007844
:10030000062809DA0421BE48BC4A12788154BB4849
:100310000078401CB949087083E0B8480078062886
:1003200009DA0521B648B54A12788154B3480078F5
:10033000401CB249087074E0B0480078062809DA19
:100340000620AF49AD4A12788854AC480078401C6A
:10035000AA49087065E064E0A8480078062809DA30
:100360000720A749A54A12788854A4480078401C61
:10037000A249087055E0A1480078062809DA08204B
:100380009F499E4A127888549C480078401C9B499B
:10039000087046E099480078062809DA092098494B
:1003A000964A1278885495480078401C9349087002
:1003B00037E036E000209149087091494871087192
:1003C000C8708870487008702BE08C480078062848
:1003D00009DA00218A48894A1278815487480078CE
:1003E000401C864908701CE01BE084480078062801
:1003F00009D1062283498248FFF716FF18B1002071
:1004000003F01CFA02E0012003F018FA00207B49F7
:1004100008707B4948710871C8708870487008700E
:1004200000BF00BF10BD3EB574480078764909781A
:1004300088422ED0714804784FF6E0704223702233
:100440002D210090102002F033FD6C480078072821
:1004500002D106206949087011E0062C0FDA00204D
:1004600010214FF6E072CDE900210290210101F147
:1004700014004FF478432A222D2102F0F2FE201EB0
:10048000A4F10101CCB2E8D15C4800785E49087063
:1004900000BF3EBD02205D490870704770B5002462
:1004A0001DE05B48056804EB44005A4901EB8000FD
:1004B000806804EB4401574A02EB81014968084413
:1004C000A8420AD204EB4400114601EB800085608B
:1004D00004EB440152F821008047601CC4B24B4831
:1004E00000788442DDDB70BD0EB500244FF4A060BF
:1004F00000F0E0F9A82002F081F903F04FF90120A3
:1005000003F09CF902F0ACFB4FF6FF707F231A4614
:1005100000210090084602F0CBFC002010214FF68D
:10052000FF724FF47843CDE9002102903AA23221C4
:10053000202002F074FE0DE04FF478407F23224625
:1005400064210090204602F0E6FC0A2002F0B8F98F
:10055000601CC4B2802CEFDB002010214FF6FF722C
:100560004FF47843CDE9002102902EA232212020C1
:1005700002F055FE4FF4FA7002F0A2F92C488023E5
:100580001A4600210090084602F0B8FF0020102112
:100590004FF6FF724FF47843CDE90021029025A277
:1005A000014602F03CFE002010214FF6FF724FF48E
:1005B0007843CDE90021029020A202F030FE4FF6F0
:1005C000E070422370222D210090102002F070FC78
:1005D00002F0C8FF532140F2E73003F03FF9FFF784
:1005E00059FF01E0FFF75AFFFCE70000010000207F
:1005F0000200002003000020040000201100002061
:100600000B00002005000020120000202C0000201C
:100610006000002014000020D5FDD4DAC6F4B6AF87
:1006200000000000C6F4B6AFB3C9B9A600000000D0
:100630005A390008D2D1CBF8B6A80000C7EBCAE4FB
:10064000C8EBC3DCC2EB0000704700BFFEE700BF91
:10065000FEE700BFFEE700BFFEE770477047704748
:10066000704700000CB500200190009076480068AB
:1006700040F480307449086000BF7348006800F49B
:10068000003000900198401C0190009818B9019822
:10069000B0F5A04FF1D16C48006800F4003010B103
:1006A0000120009001E0002000900098012846D130
:1006B00065484030006840F0805063494031086030
:1006C0006248006840F44040604908605E48083075
:1006D00000685D49083108600846006840F4004041
:1006E00008600846006840F4A05008605848091F98
:1006F0000860081F006840F08070091F086000BF94
:100700005148006800F000700028F9D040F20570F0
:10071000504908604C480830006820F003004A49FE
:10072000083108600846006840F00200086000BF19
:1007300045480830006800F00C000828F8D10CBDCE
:1007400010B54548006840F47000434908603E48D1
:10075000006840F001003C49086000203A49083137
:100760000860394800683D490840374908603C48FE
:10077000091D0860081F006820F48020091F086018
:10078000002031490C310860FFF76CFF4FF000602A
:1007900031498039086010BD70B500200022022365
:1007A00000240221284D08352D6805F00C0020B1E9
:1007B000042806D0082834D107E02A4D2A4E356097
:1007C00033E02A4D284E35602FE01F4D2D1D2D683A
:1007D000C5F380541C4D2D1D2D6805F03F0154B10B
:1007E000224DB5FBF1F5184E361D3668C6F3881656
:1007F00005FB06F209E01B4DB5FBF1F5124E361D67
:100800003668C6F3881605FB06F20F4D2D1D2D68C0
:10081000C5F301456D1C6B00B2FBF3F5124E35605C
:1008200003E0104D104E356000BF00BF064D083587
:100830002D68C5F303150E4E705D0B4D2D68C54038
:10084000094E356070BD0000003802400070004065
:1008500008544007003C024088ED00E0FFFFF6FE30
:10086000103000240024F4003000002000127A0030
:10087000340000200948804709480047FEE7FEE7AA
:10088000FEE7FEE7FEE7FEE7FEE7FEE7FEE7FEE740
:1008900004480549054A064B704700004107000817
:1008A000890100089001002090070020900300209B
:1008B0009003002032490143324A1160704770B5FD
:1008C000002100230F22C4781CB32E4C246804F4AA
:1008D000E064C4F5E064C4F30721C1F10404E3B2A9
:1008E0000A4144789C40E1B28478144021430C07CB
:1008F000210E254C05786155047804F01F0501246C
:10090000AC4005786D11AD0005F1E025C5F800415A
:1009100009E0047804F01F050124AC401B4D067863
:10092000761145F8264070BD194A0A400243154B1E
:100930001B1F1A60704739B1124A121D1268024318
:10094000104B1B1D1A6006E00E4A121D12688243EE
:100950000C4B1B1D1A607047042808D14FF0E02192
:10096000096941F004014FF0E022116107E04FF006
:10097000E021096921F004014FF0E0221161704784
:100980000000FA050CED00E000E400E080E100E08A
:1009900080FFFF1F10B504469848844208D101210A
:1009A000084600F086FB0021012000F082FB76E083
:1009B0009348844208D10121022000F07AFB0021F3
:1009C000022000F076FB6AE08E48844208D10121C3
:1009D000042000F06EFB0021042000F06AFB5EE0C2
:1009E0008948844208D10121082000F062FB0021DF
:1009F000082000F05EFB52E08448844208D10121C7
:100A0000102000F056FB0021102000F052FB46E0C1
:100A10007F48844208D10121202000F04AFB0021B8
:100A2000202000F046FB3AE07A48844208D10121B8
:100A3000402000F03EFB0021402000F03AFB2EE079
:100A40007548844208D10121802000F032FB00214A
:100A5000802000F02EFB22E07048844208D1012162
:100A6000801500F026FB0021A01500F022FB16E007
:100A70006B48844208D10121401500F01AFB002187
:100A8000601500F016FB0AE06648844207D1012198
:100A9000001500F00EFB0021201500F00AFB10BD30
:100AA000F0B50A4600210023002400BF3DE00125E7
:100AB00005FA01F3156805EA03049C4234D1056880
:100AC0004F000326BE40B543056015794E00B54082
:100AD0000668354305601579012D02D01579022D80
:100AE00016D185684F000326BE40B5438560557911
:100AF0004E00B540866835438560456801268E40C6
:100B0000B5434560456896798E40B6B23543456039
:100B1000C5684F000326BE40B543C560D5794E0079
:100B2000B540C6683543C560491C1029BFD3F0BD28
:100B30004FF6FF7101600021017141718171C17136
:100B4000704708B54FF480320092009A0A43009231
:100B5000009AC261C161009AC261C2690092C26911
:100B6000009208BD0246002013690B400BB1012022
:100B700000E0002070470146086980B270470246D5
:100B8000002053690B400BB1012000E000207047AA
:100B90000146486980B270470183704741837047BE
:100BA0000AB1018300E041837047416170474269A7
:100BB0004A4042617047F0B5002300244D07ED0E16
:100BC00002FA05F3CE1000F1200555F826504E0725
:100BD000F70E0F26BE40B543CF1000F1200646F8B1
:100BE0002750CE1000F1200555F8265045EA0304A1
:100BF000CE1000F1200545F82640F0BD000002406F
:100C00000004024000080240000C024000100240B4
:100C10000014024000180240001C02400020024064
:100C20000024024000280240F948006840F001001A
:100C3000F74908600020F64908310860F448006868
:100C4000F4490840F2490860F348091D0860F34878
:100C5000EF4984310860F0481038091D0860EC48FD
:100C6000006820F48020EA4908600020E8490C313F
:100C70000860E7498C31086070470021E44A921C03
:100C8000117011460870704710B50146002200230C
:100C900000204A11012A02D1DD4C236808E0022A13
:100CA00003D1DB4C7034236802E0D94C74342368E0
:100CB00001F01F02012494401C400CB1012000E00F
:100CC000002010BD38B5002000900024002500BF92
:100CD0003120FFF7D9FF05460098401C009000988E
:100CE000B0F5A04F01D0002DF2D03120FFF7CCFF9E
:100CF00008B1012400E00024204638BD0146002050
:100D0000C34A106820F0F80040EAC1001060704744
:100D1000C349086070470021BD4A703211701170DC
:100D2000012802D004280AD104E00121B84A703217
:100D3000117005E00521B64A7032117000E000BF65
:100D400000BF7047B7490860704770B5049C41EA1E
:100D500082150126C6EB530645EA0645054345EADA
:100D60000465AB4E361D356070BDAD4908667047F1
:100D7000820142EA0172A64B84331A607047A84987
:100D80008866704710B5830143EA016343EA027342
:100D90009F4C8834236010BDA14908677047A04963
:100DA000C864704702460020994B0833186820F049
:100DB000EC6042EA01031843954B08331860704712
:100DC00002460020924B0833186820F0784042EA2F
:100DD000010318438E4B083318607047014600200A
:100DE0008B4A0832106820F00300084310607047F7
:100DF00087480830006800F00C007047014600206A
:100E0000834A0832106820F0F000084310607047F1
:100E1000014600207E4A0832106820F4E050084362
:100E20001060704701460020794A0832106820F4AB
:100E3000604040EAC10010607047F0B50021002218
:100E40000024022500260223714F08373F6807F06F
:100E50000C0121B1042905D0082937D105E0724FD2
:100E6000076036E0714F076033E0694F3F1D3F6810
:100E7000C7F38056664F3F1D3F6807F03F036EB1D2
:100E80006A4FB7FBF3F7DFF888C10CF1040CDCF80C
:100E900000C0CCF3881C07FB0CF40CE0624FB7FBDE
:100EA000F3F7DFF86CC10CF1040CDCF800C0CCF3F4
:100EB000881C07FB0CF4564F3F1D3F68C7F30147E2
:100EC0007F1C7D00B4FBF5F7076002E0564F07601A
:100ED00000BF00BF4E4F08373F6807F0F001090917
:100EE000534F7A5C0768D7404760494F08373F68DF
:100EF00007F4E051890A4E4F7A5C4768D740876013
:100F0000434F08373F6807F46041490B484F7A5C0C
:100F10004768D740C760F0BD002100F44072B2F5C9
:100F2000407F0AD13A4A0832116821F4F811414A47
:100F300002401143364A08321160354A7032126855
:100F4000C0F30B031A43324B70331A6070473549B4
:100F50004439086070473349403908607047364962
:100F60000860704701460020294A8C32106820F042
:100F70001F004A1E1043264A8C32106070470146FB
:100F80000020234A8C32106820F4F8504A1E40EAB0
:100F900002201F4A8C3210607047014600201C4A14
:100FA0008C32106820F440100843106070470146EE
:100FB0000020174A8C32106820F44000084310606B
:100FC000704701460020124A8C32106820F44030ED
:100FD00008431060704719490860704739B10C4ADE
:100FE0003032126802430A4B30331A6006E0084A76
:100FF000303212688243064B30331A607047F9B1C1
:10100000034A343212680243014B34331A601CE045
:1010100000380240FFFFF6EA1030002400300020C4
:1010200000004742800E47420024F40000127A007C
:1010300044000020FFFCFF0F5C014742E0114742E3
:101040008F4A126882438E4B1A60704739B18C4ABE
:10105000121D126802438A4B1B1D1A6006E0884A63
:10106000121D12688243864B1B1D1A60704739B1EE
:10107000834A0C3212680243814B0C331A6006E03B
:101080007F4A0C32126882437D4B0C331A607047E2
:1010900039B17B4A103212680243794B10331A601F
:1010A00006E0774A103212688243754B10331A609B
:1010B000704739B1724A243A12680243704B243B9C
:1010C0001A6006E06E4A243A126882436C4B243B55
:1010D0001A60704739B16A4A203A12680243684B75
:1010E000203B1A6006E0664A203A12688243644B4D
:1010F000203B1A60704739B1614A1C3A12680243BA
:101100005F4B1C3B1A6006E05D4A1C3A1268824342
:101110005B4B1C3B1A60704739B1594A143A12684C
:101120000243574B143B1A6006E0554A143A1268C2
:101130008243534B143B1A60704739B1504A103AFE
:10114000126802434E4B103B1A6006E04C4A103ABC
:10115000126882434A4B103B1A60704739B1484AC3
:101160001C3212680243464B1C331A6006E0444AA4
:101170001C3212688243424B1C331A60704739B1EB
:101180003F4A2032126802433D4B20331A6006E08A
:101190003B4A203212688243394B20331A60704731
:1011A00039B1374A243212680243354B24331A606E
:1011B00006E0334A243212688243314B24331A60EA
:1011C000704739B12E4A2C32126802432C4B2C3313
:1011D0001A6006E02A4A2C3212688243284B2C33CC
:1011E0001A60704739B1264A303212680243244BE4
:1011F00030331A6006E0224A303212688243204BB4
:1012000030331A607047012808D11D493C31096804
:1012100041F008011A4A3C32116007E018493C319C
:10122000096821F00801164A3C321160704739B153
:10123000134A273A12780243114B273B1A7006E0F3
:101240000F4A273A127882430D4B273B1A7070479A
:101250000B484030006840F0807009494031086018
:10126000704701460020064A283A12680A400AB12F
:10127000012000E0002070470149263908707047BE
:101280003438024010B50446FB48844208D101219D
:101290008014FFF752FF0021A014FFF74EFF3CE03F
:1012A000F648844208D101210014FFF735FF0021E0
:1012B0002014FFF731FF30E0F148844208D10121CA
:1012C000C013FFF729FF0021E013FFF725FF24E0FB
:1012D000EC48844208D101214014FFF72EFF002181
:1012E0006014FFF72AFF18E0E748844209D1012182
:1012F0000805FFF722FF00214FF48010FFF71DFFC4
:101300000BE0E248844208D101214805FFF715FFB0
:1013100000214FF40010FFF710FF10BD10B50022A0
:10132000028802F441520B884C8823438C88234363
:10133000CC8823430C8923434C8923438C89234342
:10134000CC8923431A430280838B4FF2FF742340DE
:1013500083830B8A038210BD2DE9F04F0025022301
:1013600000244FF0010900220026002794469046F1
:10137000B0F81CA04FF2400B0AEA0B0AA0F81CA020
:101380004FF0020AA0F820A0858BD1F808A0BAF18E
:10139000020F01D100BF82E0B1F804A0BAF1000F42
:1013A00002D14FF0010901E04FF00209DFF8E0A29D
:1013B000DAF800A00AF4000ABAF1000F09D0DFF849
:1013C000D0A2DAF800A02AF4000ADFF8C4B2CBF801
:1013D00000A0DFF8BCA20AF17C0ADAF800A0CAF388
:1013E000881CDFF8ACA20AF17C0ADAF800A0CAF384
:1013F0000278DFF89CA2AAF1040ADAF800A00AF049
:101400003F07DFF88CA2AAF1040ADAF800A00AF478
:10141000800ABAF5800F08D1DFF878A2BAFBF7FA94
:101420000AFB0CFABAFBF8F607E0DFF86CA2BAFB8D
:10143000F7FA0AFB0CFABAFBF8F6B1F806A0BAF50F
:10144000007F0ED14FEA162A0AEB8A0A4FEA4A0AAF
:10145000D1F808B0BAFBFBFA0AF1050A1FFA8AF2C2
:101460000FE04FEA491AB6FBFAFA0AEB8A0A4FEA8A
:101470004A0AD1F808B0BAFBFBFA0AF1050A1FFACA
:101480008AF24FF00A0AB2FBFAF202F00104A2EB70
:10149000040ACAF34F034FF6FF7A0AEA0424022B28
:1014A00001DBFF2B01DD02230024B1F806A04AEA8C
:1014B000040A4AEA030AA0F820A0B1F804A0B1F88F
:1014C0000CB04AEA0B0AB1F802B04AEA0B0AB1F8CA
:1014D00000B04AEA0B0A4AF4006A4AEA0505858325
:1014E000BDE8F08F0021018041808180C1800181B1
:1014F00041818181C18107210182704700210180E2
:1015000041808180C18002218160002181817047FA
:1015100021B1028842F04002028004E002884FF6C6
:10152000BF731A400280704721B1828B42F48062FF
:10153000828304E0828B4FF6FF331A408283704728
:1015400002884FF2FF731A40028002880A43028029
:101550007047B1F5804F04D1028842F48042028086
:1015600004E002884BF6FF731A40028070474FF682
:10157000FF62914204D0028842F48072028004E04B
:1015800002884FF6FF631A400280704721B18288BB
:1015900042F00402828004E082884FF6FB731A4016
:1015A0008280704721B1828842F01002828004E07C
:1015B00082884FF6EF731A408280704730B5002260
:1015C0000023848B4FF240052C4084830224048442
:1015D000828B0C88B4F5007F01D00C8814B94FF4CD
:1015E000807308E00C88B4F5407F03D00C88B4F514
:1015F000807F00D100238C888D892C434D882C431B
:101600001C4344F400642243828330BD0146888930
:1016100070478181704721B1028842F400520280F4
:1016200004E002884DF6FF731A400280704701887B
:1016300041F480510180704702460020012901D009
:10164000108B00E0908A70470146088A70471AB1F3
:1016500083880B43838002E083888B4383807047B9
:1016600030B5002400230C110125A540ABB2AAB16E
:1016700085881D43858014E000300140003800401B
:10168000003C004000340140005001400054014043
:101690000838024000127A000024F40085889D4337
:1016A000858030BD0246002013890B400BB101201C
:1016B00000E000207047CA4302817047F0B502463F
:1016C000002000240023002501F00F070126BE4062
:1016D000B4B20B1101269E40B3B2968806EA030508
:1016E0001689264016B10DB1012000E00020F0BDA2
:1016F00010B5002201F00F040123A3409AB2D34396
:10170000038110BD10B50446FE48844208D1012172
:101710000846FFF712FD00210120FFF70EFD9DE0B6
:10172000B4F1804F08D101210846FFF7F5FC0021F4
:101730000120FFF7F1FC91E0F348844208D1012138
:101740000220FFF7E9FC00210220FFF7E5FC85E01D
:10175000EE48844208D101210420FFF7DDFC00217E
:101760000420FFF7D9FC79E0E948844208D101213F
:101770000820FFF7D1FC00210820FFF7CDFC6DE029
:10178000E448844208D101211020FFF7C5FC002164
:101790001020FFF7C1FC61E0DF48844208D101213D
:1017A0002020FFF7B9FC00212020FFF7B5FC55E011
:1017B000DA48844208D101210220FFF7BEFC002153
:1017C0000220FFF7BAFC49E0D548844209D1012143
:1017D0000804FFF7B2FC00214FF48030FFF7ADFCA6
:1017E0003CE0D048844209D101214804FFF7A5FC20
:1017F00000214FF40030FFF7A0FC2FE0CA488442DC
:1018000009D101218804FFF798FC00214FF48020C2
:10181000FFF793FC22E0C548844208D10121402013
:10182000FFF77AFC00214020FFF776FC16E0C04865
:10183000844208D101218020FFF76EFC0021802026
:10184000FFF76AFC0AE0BB48844207D101218015FA
:10185000FFF762FC0021A015FFF75EFC10BD00221F
:101860000288A84B98420ED0AC4B98420BD0B0F1F6
:10187000804F08D0A44B984205D0A44B984202D088
:10188000A34B984204D14FF68F731A404B881A43EA
:10189000A04B984207D0A04B984204D04FF6FF438C
:1018A0001A400B891A4302804B68C3620B88038578
:1018B000944B984202D0994B984201D18B7A03867F
:1018C0000123838270474FF0FF3141600021018086
:1018D00001814180817270470185828270470A468A
:1018E000002101884FF68F73194011430180704722
:1018F00041627047C16270470146486A70470146BD
:10190000088D704721B1028842F00202028004E093
:1019100002884FF6FD731A400280704721B1028899
:1019200042F00402028004E002884FF6FB731A4082
:101930000280704721B1028842F08002028004E0F8
:1019400002884FF67F731A400280704702884FF674
:10195000F7731A40028002880A43028070470288A7
:101960004FF6FF431A40028002880A430280704704
:1019700021B1028842F00102028004E002884FF6A1
:10198000FE731A400280704770B5002400220023C5
:10199000058C4FF6FE7635400584028C8388048BD7
:1019A0004FF68F752C40B51E2C400D882C43751EAC
:1019B0002A408D892A434D882A43524DA84202D09D
:1019C000564DA84213D14FF6F7752A40CD892A43C8
:1019D0004FF6FB752A408D882A434FF6FF652B4052
:1019E0004FF6FF552B400D8A2B434D8A2B438380A6
:1019F00004838D684563028470BD70B500240022A5
:101A00000023058C4FF6EF7635400584028C8388E1
:101A1000048B48F6FF752C404FF6FF452C400D888F
:101A20004FF6FF7606EA05252C434FF6DF752A4070
:101A30008D8906EA05152A434D8806EA05152A43CD
:101A4000304DA84202D0354DA8421DD14FF67F75CA
:101A50002A40CD894FF6FF7606EA05152A434FF650
:101A6000BF752A408D8806EA05152A434FF6FF35D3
:101A70002B404FF2FF752B400D8A06EA85052B435C
:101A80004D8A06EA85052B43838004838D68856330
:101A9000028470BD70B5002400220023058C4FF62F
:101AA000FF6635400584028C8388848B4FF68F75E2
:101AB0002C404FF6FC752C400D882C434FF6FF55FB
:101AC0002A408D894FF6FF7606EA05252A434D8880
:101AD00006EA05252A430B4DA84202D00F4DA84225
:101AE00038D14FF2FF752A40CD894FF6FF7606EACE
:101AF00005252A434FF6FF352A408D8806EA05253D
:101B00002A4319E0000001400004004000080040A2
:101B1000000C004000100040001400400004014090
:101B200000400140004401400048014000180040CE
:101B3000001C0040002000404EF6FF752B404DF683
:101B4000FF752B400D8A06EA05152B434D8A06EAE0
:101B500005152B43838084838D68C563028470BD23
:101B600070B5002200230024058C4EF6FF76354028
:101B70000584038C8488828B48F6FF752A404FF6D3
:101B8000FF452A400D884FF6FF7606EA05252A43D1
:101B90004DF6FF752B408D8906EA05352B434D88A0
:101BA00006EA05352B43FE4DA84202D0FD4DA84262
:101BB00008D14BF6FF752C400D8A4FF6FF7606EAEA
:101BC00085152C43848082838D680564038470BDF1
:101BD000002101804180818081608181C1810182F9
:101BE0004182704770B50346002000241846183023
:101BF00001258D40ACB21D8CA5431D8409B1082977
:101C00000AD100EB610005684FF68F76354005601C
:101C10000568154305600FE00D1FC5F34E05284408
:101C2000056848F6FF763540056005684FF6FF7693
:101C300006EA02263543056070BD41637047816343
:101C40007047C1637047016470470A460021018BE9
:101C50004FF68F7319401143018370470A460021E4
:101C6000018B48F6FF7319404FF6FF7303EA022316
:101C70001943018370470A460021818B4FF68F7309
:101C800019401143818370470A460021818B48F631
:101C9000FF7319404FF6FF7303EA02231943818350
:101CA00070470A460021018B4FF6F7731940114324
:101CB000018370470A460021018B4FF2FF731940E0
:101CC0004FF6FF7303EA02231943018370470A4664
:101CD0000021818B4FF6F7731940114381837047C0
:101CE0000A460021818B4FF2FF7319404FF6FF73B4
:101CF00003EA02231943818370470A460021018BBE
:101D00004FF6FB7319401143018370470A460021C7
:101D1000018B4FF6FF3319404FF6FF7303EA02239E
:101D20001943018370470A460021818B4FF6FB73EC
:101D300019401143818370470A460021818B4FF679
:101D4000FF3319404FF6FF7303EA022319438183DF
:101D500070470A460021018B4FF67F7319401143EB
:101D6000018370470A460021018BC1F30E014FF633
:101D7000FF7303EA02231943018370470A460021D7
:101D8000818B4FF67F7319401143818370470A4658
:101D90000021818BC1F30E014FF6FF7303EA02238A
:101DA0001943818370470A460021018C4FF6FD7369
:101DB00019401143018470470A460021018C4FF6F7
:101DC000F77319401143018470470A460021018CC2
:101DD0004FF6DF7319404FF6FF7303EA02131943FE
:101DE000018470470A460021018C4FF67F73194029
:101DF0004FF6FF7303EA02131943018470470A4642
:101E00000021018C4FF6FF5319404FF6FF7303EA90
:101E100002231943018470470A460021018C4FF2C6
:101E2000FF7319404FF6FF7303EA0223194301843D
:101E300070470A460021018C4DF6FF7319404FF69A
:101E4000FF7303EA023319430184704730B500235E
:101E500001248C40A3B2048C9C430484048C02FAB9
:101E600001F5ADB22C43048430BD30B50023042409
:101E70008C40A3B2048C9C430484048C02FA01F5C8
:101E8000ADB22C43048430BD828B4FF2FF331A4035
:101E90008283828B4FF6FF7303EA01231A43828306
:101EA0007047F0B50C461546002100220026078C2D
:101EB0004EF6FF7C07EA0C070784818B028C4FF6F5
:101EC000FF7707EA043640F6FF4739404FF6FF77C1
:101ED00007EA052739434FF6FF7707EA0337394307
:101EE00045F6FF773A4046F480573A4381830284AF
:101EF000F0BD828B4FF6F3731A408283828B0A43C4
:101F000082837047F0B50C4615460021002200265A
:101F1000078C4FF6FF6C07EA0C070784818B028C55
:101F20004FF6FF7707EA04264FF60C7739404FF655
:101F3000FF7707EA03172F4339434FF2FF573A4021
:101F400046F480773A4381830284F0BD028B4FF2DE
:101F5000FF331A400283028B4FF6FF7303EA01231B
:101F60001A4302837047F0B50C4615460021002243
:101F70000026078C4FF6EF7C07EA0C070784018BDD
:101F8000028C4FF6FF7707EA041640F6FF47394008
:101F90004FF6FF7707EA033739434FF6FF7703E041
:101FA000000001400004014007EA052739434FF6CD
:101FB0005F773A4046F010073A4301830284F0BD50
:101FC000028B4FF6F3731A400283028B0A4302839B
:101FD0007047F0B50C46154600210022068C4FF6DE
:101FE000FE773E400684018B028C4FF60C76314022
:101FF0007E1C06EA03162E4331434FF6F576324037
:1020000044F00106324301830284F0BD70B50546F9
:102010000C46208850B92389A28861882846FFF79A
:10202000D8FFE1882846FFF7CBFF25E02088042869
:102030000AD12389A28861882846FFF794FFE188A6
:102040002846FFF783FF17E0208808280AD1238954
:10205000A28861882846FFF755FFE1882846FFF7E8
:1020600048FF09E02389A28861882846FFF719FF05
:10207000E1882846FFF708FF70BD002101804180FC
:10208000012181800021C180018170472DE9F0414B
:1020900005460C4600260127608808B9022600E0A4
:1020A0000026A088012801D1022700E0012720880E
:1020B000A0B92389A28861882846FFF78AFFE188B2
:1020C0002846FFF77DFF23893A4631462846FFF729
:1020D0004AFFE1882846FFF739FF13E02389A288E9
:1020E00061882846FFF73FFFE1882846FFF72EFF6B
:1020F00023893A4631462846FFF76BFFE188284698
:10210000FFF75EFFBDE8F0810146486B704701466E
:10211000886B70470146C86B70470146086C704772
:102120000A884B881A438B881A43CB881A430B8939
:102130001A434B891A438B891A43A0F844207047ED
:102140000021018041808180C180018141818181A4
:10215000704731B1B0F8442042F40042A0F8442066
:1021600005E0B0F84420C2F30E02A0F84420704706
:1021700021B1828842F00402828004E082884FF616
:10218000FB731A408280704721B1828842F00102BD
:10219000828004E082884FF6FE731A408280704786
:1021A0001AB183890B43838102E083898B43838146
:1021B00070478182704702460020138A0B400BB1A2
:1021C000012000E000207047CA430282704730B50A
:1021D0000246002000230024158A05EA01039589A0
:1021E00005EA010413B10CB1012000E0002030BD6C
:1021F000CA430282704741EA0203A0F848307047A0
:102200001AB183890B43838102E083898B438381E5
:10221000704721B1828842F00802828004E08288FF
:102220004FF6F7731A408280704701894FF6F872B3
:102230001140018170470A46002101894FF68F73D2
:10224000194011430181704730B504460D462946B7
:102250002046FFF7F0FF208940F00700208130BDC5
:102260002DE9F04104460D4616461F46602D06D165
:102270003B46012231462046FFF775FE05E03B460E
:10228000012231462046FFF7A4FE29462046FFF7EB
:10229000D2FF208940F007002081BDE8F08130B5F1
:1022A0000C4600210189C9B24FF6FF7505EA0325E6
:1022B000154325432943018130BD2DE9F0410546F1
:1022C0000E4617469846002443463A46314628466D
:1022D000FFF7E5FF2C894FF6F870044044F007043F
:1022E0004FF68F70044044F070042C81BDE8F081FB
:1022F000F0B504460D4616461F463B463246294673
:102300002046FFF7CCFF208940F480402081F0BDBB
:1023100082884FF68F731A40828082880A438280B7
:10232000704702894FF6F8731A40028102890A4306
:102330000281704702894FF67F731A400281028939
:102340000A4302817047F0B50C4615461E4600212F
:10235000002200230189028B038C4FF6F877394065
:1023600021434FF6FC473A4040F201173A434FF6FB
:10237000DD773B404FF6FF7707EA06172F433B43D5
:10238000018102830384F0BD21B1828842F0800282
:10239000828004E082884FF67F731A408280704703
:1023A000A0F850107047000010B50446FA48844267
:1023B00008D101211020FEF7C0FE00211020FEF7F9
:1023C000BCFE57E0F548844209D101214804FEF7DC
:1023D000A3FE00214FF40030FEF79EFE4AE0F048D5
:1023E000844209D101218804FEF796FE00214FF4B2
:1023F0008020FEF791FE3DE0EA48844209D10121A8
:10240000C804FEF789FE00214FF40020FEF784FE89
:1024100030E0E548844209D101210805FEF77CFE41
:1024200000214FF48010FEF777FE23E0DF4884425E
:1024300008D101212020FEF780FE00212020FEF798
:102440007CFE17E0DA48844209D101218807FEF7B3
:1024500063FE00214FF08040FEF75EFE0AE0D548A3
:10246000844207D101214005FEF756FE0021600598
:10247000FEF752FE10BD2DE9FF4705460E4600242B
:10248000A14600BFA046B08900B100BF2C8A24F449
:102490004054F08804432C82AC8941F20C608443A0
:1024A000B08831890843718908430443AC81AC8A00
:1024B00024F44074B0890443AC826846FEF7BDFC46
:1024C000B548854202D0B948854202D1DDF80C906A
:1024D00001E0DDF80890A88900F4004040B109EB64
:1024E000C90000EB091031684900B0FBF1F707E0C3
:1024F00009EBC90000EB091031688900B0FBF1F766
:102500006420B7FBF0F004012009642101FB10787E
:10251000A88900F4004040B1322000EBC800B0FBB5
:10252000F1F000F00700044308E0322000EB08104F
:102530006421B0FBF1F000F00F0004432C81BDE8F2
:10254000FF874FF41651016000218180C180018115
:102550000C21418100218181704710B50246002085
:10256000108A20F470600B884C8823438C882343A6
:10257000CC8823431843108210BD00210180418084
:102580008180C180704721B1828942F400528281EA
:1025900004E082894DF6FF731A4082817047028BF6
:1025A00002F47F420283028B0A430283704721B107
:1025B000828942F40042828103E08289C2F30E02E2
:1025C0008281704721B1828A42F40062828204E0F3
:1025D000828A4FF2FF731A4082827047C1F3080269
:1025E0008280704701468888C0F308007047028ADD
:1025F0004FF6F0731A400282028A0A430282704741
:1026000021B1828942F00202828104E082894FF680
:10261000FD731A408281704782894FF2FF731A401E
:10262000828182890A4382817047028A4FF6DF7372
:102630001A400282028A0A430282704721B1028A4A
:1026400042F48042028204E0028A4BF6FF731A4091
:1026500002827047818941F001018181704721B177
:10266000828A42F00802828204E0828A4FF6F7737F
:102670001A4082827047028BD2B20283028B42EAF6
:1026800001220283704721B1828A42F020028282B5
:1026900004E0828A4FF6DF731A408282704721B1CC
:1026A000828A42F01002828204E0828A4FF6EF733F
:1026B0001A4082827047828A4FF6FB731A408282E8
:1026C000828A0A438282704721B1828A42F00202E2
:1026D000828204E0828A4FF6FD731A40828270473C
:1026E0001AB1838A0B43838202E0838A8B438382FD
:1026F0007047F0B50346002400260025002040F670
:102700006A17B94200D100BF1846C1F3421401F064
:102710001F06012707FA06F5012C01D10C3004E051
:10272000022C01D1103000E014301AB107682F4399
:10273000076002E00768AF430760F0BD0246002073
:10274000B1F5007F00D100BF13880B400BB1012011
:1027500000E00020704701F40072B2F5007F00D164
:1027600000BFCA430280704770B5024600240023B0
:102770000025002040F66A16B14200D100BFC1F327
:10278000421501F01F03012606FA03F3012D13D1B0
:102790009689334017E000000010014000440040DB
:1027A00000480040004C0040005000400014014030
:1027B00000780040007C0040022D02D1168A334090
:1027C00001E0968A33400C12012606FA04F41688BA
:1027D000344013B10CB1012000E0002070BD10B5F1
:1027E0000022002340F66A14A14200D100BF0A1261
:1027F00001249440A3B2DC43048010BD10B504460C
:102800006FF00400FEF7A8F8E11704EB5171C1F373
:10281000C701394A11701046007800EB4001C1EB46
:10282000C0104FF6FF7101EAC0003449088010BDA6
:102830000146314A12784A434FF0E0235A610022A0
:102840009A611A46126942F001021A6100BF4FF004
:10285000E022106900F001021AB100F48032002A6F
:10286000F5D04FF0E022126922F001024FF0E02390
:102870001A6100229A6170470146204A12884A4331
:102880004FF0E0235A6100229A611A46126942F021
:1028900001021A6100BF4FF0E022106900F001024E
:1028A0001AB100F48032002AF5D04FF0E02212690C
:1028B00022F001024FF0E0231A6100229A61704772
:1028C00070B504464FF4077094FBF0F0C6B24FF4B5
:1028D000077094FBF0F100FB114085B205E04FF466
:1028E0000770FFF7C9FF701EC6B2002EF7D115B1F1
:1028F0002846FFF7C1FF70BD54000020560000209D
:1029000000BF704700BF4E4A128802F04002002A02
:10291000F9D0C2B24A4B9A80704710B588B00446CD
:1029200001210846FEF75AFB01211020FEF7B0FBFB
:10293000072209214348FEF73EF907220A214148B0
:10294000FEF739F94FF4C060069002208DF81C00A4
:102950008DF81D0000208DF81E0001208DF81F004D
:1029600006A93848FEF79CF802940020ADF80C0048
:10297000ADF80E00ADF81000ADF814000C20ADF865
:10298000120002A92E48FFF776FD01212C48FFF71F
:10299000FAFD40212A48FFF7DEFE012240F22551D0
:1029A0002748FFF7A6FE25208DF8040003208DF8A8
:1029B00005008DF8060001208DF8070001A8FDF73D
:1029C0007EFF08B010BD10B540F225511C48FFF73E
:1029D000CBFE10B31A48FFF705FEC4B21A480088B0
:1029E00000F40040C8B91848008800F4804060B185
:1029F0000A2C03D000201449088020E012480088E7
:102A000040F400401049088019E00D2C06D10E4812
:102A1000008840F480400C49088010E00A48008893
:102A2000C0F30D0009490C5407480088401C0649B2
:102A3000088008460088C72801DD0020088010BDF6
:102A400000100140000002405C00002064000020F3
:102A500000B587B001210720FEF7C0FA0121C803A5
:102A6000FEF705FB1A20059001208DF818000020C4
:102A70008DF81A0003208DF8190001208DF81B0035
:102A800005A9FE48FEF70CF80221FC48FEF784F881
:102A90000821FA48FEF780F81021F848FEF77CF884
:102AA0004FF40070059001208DF8180000208DF87B
:102AB0001A0003208DF8190001208DF81B0005A9CC
:102AC000EF48FDF7EDFF4FF40071ED48FEF764F8B5
:102AD0004FF4E050059002208DF8180000208DF88A
:102AE0001A0003208DF8190001208DF81B0005A99C
:102AF000E448FDF7D5FF06220A21E248FEF75BF81D
:102B000006220B21DF48FEF756F806220C21DD488D
:102B1000FEF751F80020ADF800004FF48270ADF8D8
:102B200002000020ADF80400ADF80600ADF8080082
:102B30004FF40070ADF80A000820ADF80C0000203A
:102B4000ADF80E000720ADF810006946CE48FEF73C
:102B5000E5FB0121CC48FEF7DBFC07B000BD70B5FA
:102B60000546002405E0601C84B2C82C01DD00206D
:102B700070BD0221C448FEF795FD0028F3D0294618
:102B8000C148FEF746FD002405E0601C84B2C82C55
:102B900001DD0020ECE70121BB48FEF783FD0028A2
:102BA000F3D0B948FEF732FDC0B2E1E710B50446F4
:102BB0001021B248FDF7F2FF0821B048FDF7ECFF05
:102BC0002046FFF7CCFF1021AC48FDF7E5FF10BD14
:102BD00010B504461021A948FDF7E0FF0821A748D9
:102BE000FDF7DAFF2012FFF7BAFFE0B2FFF7B7FFF9
:102BF0001021A248FDF7D0FF10BD10B504461021EA
:102C00009E48FDF7CBFF08219C48FDF7C7FF2046F3
:102C1000FFF7A5FF10219948FDF7BEFF10BD2DE974
:102C2000F04104460D4616461F462A20FFF7E5FFF1
:102C3000A11C88B2FFF7CCFFB11C88B2FFF7C8FF18
:102C40002B20FFF7DAFFE91C88B2FFF7C1FFF91C60
:102C500088B2FFF7BDFF2C20FFF7CFFFBDE8F08162
:102C600010B5FFF7F5FE02218448FDF797FF6420B9
:102C7000FFF726FE02218148FDF78EFF6420FFF753
:102C80001FFE4FF400717E48FDF786FF6420FFF7BA
:102C900017FE1120FFF7B1FF7820FFF711FEB120DA
:102CA000FFF7ABFF0520FFF781FF3C20FFF77EFF1A
:102CB0003C20FFF77BFFB220FFF79FFF0520FFF7C7
:102CC00075FF3C20FFF772FF3C20FFF76FFFB3203A
:102CD000FFF793FF0520FFF769FF3C20FFF766FF32
:102CE0003C20FFF763FF0520FFF760FF3C20FFF764
:102CF0005DFF3C20FFF75AFFB420FFF77EFF032063
:102D0000FFF754FF3A20FFF778FF0520FFF74EFF4B
:102D1000C020FFF772FFA220FFF748FF0220FFF755
:102D200045FF8420FFF742FFC120FFF766FFC52063
:102D3000FFF73CFFC220FFF760FF0D20FFF736FFD3
:102D40000020FFF733FFC320FFF757FF8D20FFF769
:102D50002DFF2A20FFF72AFFC420FFF74EFF8D200A
:102D6000FFF724FFEE20FFF721FFC520FFF745FF07
:102D70000A20FFF71BFF3620FFF73FFFC820FFF7B1
:102D800015FFE020FFF739FF1220FFF70FFF1C208F
:102D9000FFF70CFF1020FFF709FF1820FFF706FFD1
:102DA0003320FFF703FF2C20FFF700FF2520FFF75C
:102DB000FDFE2820FFF7FAFE2820FFF7F7FE272068
:102DC000FFF7F4FE2F20FFF7F1FE3C20FFF7EEFEA9
:102DD0000020FFF7EBFE0320FFF7E8FE0320FFF7DC
:102DE000E5FE1020FFF7E2FEE120FFF706FF1220CC
:102DF000FFF7DCFE1C20FFF7D9FE1020FFF7D6FE00
:102E00001820FFF7D3FE2D20FFF7D0FE2820FFF774
:102E1000CDFE2320FFF7CAFE2820FFF7C7FE28209B
:102E2000FFF7C4FE2620FFF7C1FE2F20FFF7BEFEEE
:102E30003B20FFF7BBFE0020FFF7B8FE0320FFF7A3
:102E4000B5FE0320FFF7B2FE1020FFF7AFFE2020F3
:102E5000FFF7D3FE1320FFF7D0FE2A20FFF7CDFEA9
:102E60000020FFF7A3FE0020FFF7A0FE0020FFF7E1
:102E70009DFE7F20FFF79AFE2B2007E00000024016
:102E80000004024000080240003C0040FFF7B5FE8D
:102E90000020FFF78BFE0020FFF788FE0020FFF7E1
:102EA00085FE7F20FFF782FE2920FFF7A6FE10BDDA
:102EB0002DE9F04706460F4614461D46DDF820A0D2
:102EC000681E83B2601E82B239463046FFF7A7FE05
:102ED000B8460EE0B14606E05046FFF779FE09F12C
:102EE00001001FFA80F9A145F6DB08F101001FFA85
:102EF00080F8A845EEDBBDE8F08770B504460D46C6
:102F000016462B46224629462046FFF788FE3046C5
:102F1000FFF75EFE70BD2DE9FF4F85B081468A4602
:102F20000020039083460798A0EB09040898A0EBC3
:102F30000A06CDF80890CDF804A0002C01DD012789
:102F400005E00CB9002702E04FF0FF376442002E85
:102F500002DD4FF0010806E016B94FF0000802E06C
:102F60004FF0FF386642B44201DD254600E03546A9
:102F7000002004901EE0019A91B2029A90B2129A37
:102F8000FFF7BBFF039820440390B3440398A84283
:102F900005DD0398401B0390029838440290AB452E
:102FA00004DDABEB050B0198404401900498401CF4
:102FB00080B20490691C04988842DCDB09B0BDE84B
:102FC000F08F2DE9F84305460E4617469846089CB3
:102FD00033463A46314628460094FFF79CFF434665
:102FE0002A46314628460094FFF795FF43463A4665
:102FF000414628460094FFF78EFF43463A46314645
:1030000038460094FFF787FFBDE8F8832DE9F047C5
:1030100006460F46904699460025444641E07A1BF5
:1030200091B2321B90B24A46FFF767FF7A1B91B20A
:10303000321990B24A46FFF760FF3A1991B2721BFB
:1030400090B24A46FFF759FF3A1B91B2721B90B2F9
:103050004A46FFF752FF7A1991B2321990B24A46A6
:10306000FFF74BFF3A1B91B2721990B24A46FFF735
:1030700044FF3A1991B2721990B24A46FFF73DFFE8
:103080007A1991B2321B90B24A46FFF736FF6D1C97
:1030900005FB05F004FB040108FB08F0814200DD9C
:1030A000641EA542BBDDBDE8F08770B504AC70CCF2
:1030B00070BD70B504AC70CC70BD2DE9FE4F0646F6
:1030C000894692469B460D9C00962046E11704EBEC
:1030D0005171C910614389B20191162002900025F7
:1030E00065E005EB0510FE4911F810009AF8001094
:1030F00088425AD105EB0510F94901EB40004078B0
:103100009AF80110884250D109EB0400401E83B2A6
:103110003019401E82B249463046FFF780FD002735
:103120003FE04FF0000836E00E9898B905EB051027
:10313000EB4901EB4000801CC05D012101FA08F160
:10314000084018B15846FFF743FD20E00C98FFF700
:103150003FFD1CE005EB0510E14901EB4000801C40
:10316000C05D012101FA08F1084020B15A464946E4
:103170003046FFF7C2FE701C86B20098301AA0429B
:1031800005D1009E09F101001FFA80F906E008F15F
:10319000010000F0FF08B8F1080FC5DB00BF781C84
:1031A000C7B201988742BCDB04E0681C85B2029874
:1031B000854296DB00BFBDE8FE8F2DE9FE4F8046BD
:1031C000894617469A46DDE90D460C9D387808B9C0
:1031D000BDE8FE8F102C09D153463A464946404679
:1031E000CDE901460095FFF768FF16E0182C09D1DC
:1031F00053463A4649464046CDE901460095FFF719
:1032000058FF0AE0202C08D153463A46494640462A
:10321000CDE901460095FFF748FF00BFD8E72DE94B
:10322000FE4F04460E4615461F46DDE90D9ADDF8B1
:10323000308011E03B462A46314620468DE80007A3
:10324000FFF7BBFF04F1100084B27F2C03DB0024E6
:1032500006F1100086B2AD1C28780028EAD1BDE83E
:10326000FE8F2DE9FF4F83B005468A461746119C15
:10327000AB46204604EBD071C1F347063046F11748
:1032800006EB5171C910614389B20191A7F1200089
:10329000C7B20AEB0400401E83B2A819401E82B2D6
:1032A00051462846FFF7BBFC4FF000094AE0102CBE
:1032B00006D18C4800EB071010F8090002900BE0D3
:1032C000202C06D1884800EB871010F809000290E6
:1032D00002E007B0BDE8F08F4FF000082AE0129836
:1032E00068B9012000FA08F00299084018B1069860
:1032F000FFF76EFC1AE01098FFF76AFC16E0012059
:1033000000FA08F00299084020B151462846069A72
:10331000FFF7F3FD681C85B2A5EB0B00B04205D1A9
:103320005D460AF101001FFA80FA06E008F101008B
:1033300000F0FF08B8F1080FD1DB00BF09F1010070
:103340001FFA80F901988145B1DB00BFC1E72DE983
:10335000FE4F06460F4614469846DDE90D5ADDF845
:10336000309010E0CDE9015ACDF800902278434624
:1033700039463046FFF775FF284605EBD07106EB5E
:1033800061018EB2641C20780028EBD1BDE8FE8F6D
:1033900010B50246012000E050430B1EA1F10104CC
:1033A000E1B2F9D110BD2DE9FF4F85B00746914636
:1033B0001D46DDE913A600200490304606EBD071CF
:1033C000C1F3470B002434E0281B401EC1B20A2081
:1033D000FFF7DEFFB9FBF0F00A21B0FBF1F201FBD1
:1033E00012080498A0B9681EA04211DDB8F1000FC0
:1033F0000CD1002004FB0B71CDE900A6029088B22D
:103400002022129B0699FFF72CFF10E00120049068
:10341000002008F13001CAB204FB0B71CDE900A60F
:10342000029088B2129B0699FFF71BFF00BF601C39
:10343000C4B2AC42C8DB09B0BDE8F08F2DE9FF4F44
:103440002DED020B2DED028B83B00746B0EE408AC6
:103450001446DDE91486304606EBD071C1F3470A05
:103460009FED220A28EE000ABCEEC00A10EE100AF8
:103470001FFA80FB002530E0601B401EC1B20A200D
:10348000FFF786FFBBFBF0F00A21B0FBF1F201FB76
:103490001209A01EA84210D10020A11E01FB0A7132
:1034A000CDE90086029088B22E220A9B0899FFF788
:1034B000D8FE681CC5B2601CC4B2002009F13001FE
:1034C000CAB205FB0A71CDE90086029088B20A9B58
:1034D0000899FFF7C6FE681CC5B2A542CCDB07E021
:1034E0004A3F01085A390108364201080000C84223
:1034F00003B0BDEC028B06B0BDE8F08F2DE9F05FA4
:103500000746884615461E46DDF82890002408EB3D
:103510000600401E83B27819401E82B241463846EA
:10352000FFF77DFBA24619E04FF0000B10E019F801
:103530001400FFF73BFB012101EB440119F80100E6
:10354000FFF734FB601C84B20BF101001FFA80FB13
:10355000B345ECDB0AF101001FFA80FAAA45E3DB70
:10356000BDE8F09F1CB501210820FDF737FD4FF4A1
:103570002060009001208DF8040000208DF80600E6
:1035800003208DF8050001208DF80700694680486A
:10359000FDF786FA01211020FDF720FD4FF42040B1
:1035A000009001208DF8040000208DF80600032013
:1035B0008DF8050001208DF8070069467548FDF774
:1035C0006FFA4FF42860009000208DF8040001206D
:1035D0008DF8070069466F48FDF762FA0121042063
:1035E000FDF7FCFC2020009000208DF80400012055
:1035F0008DF8070069466848FDF752FA4FF42061DC
:103600006348FDF7C9FA4FF420416248FDF7C4FA58
:103610001CBD10B500244FF400615D48FDF7BEFAF3
:103620004FF400715A48FDF7B7FA4FF4204159485A
:10363000FDF7B2FA0120FFF743F94FF40061554856
:10364000FDF790FA00B90D244FF400715148FDF7D1
:1036500089FA00B90E2480214E48FDF783FA00B99B
:103660000F2420214C48FDF77DFA00B910244FF4B7
:1036700000614748FDF790FA4FF400714448FDF7A8
:103680008DFA4FF420414348FDF786FA0120FFF7F9
:1036900017F94FF400613F48FDF764FA00B90924B7
:1036A0004FF400713B48FDF75DFA00B90A24802110
:1036B0003848FDF757FA00B90B2420213648FDF7AA
:1036C00051FA00B90C244FF420613148FDF764FA37
:1036D0004FF400412F48FDF761FA4FF400512D4897
:1036E000FDF75AFA0120FFF7EBF84FF40061294883
:1036F000FDF738FA00B905244FF400712548FDF7AD
:1037000031FA00B9062480212248FDF72BFA00B9CE
:10371000072420212048FDF725FA00B908244FF49A
:1037200020611B48FDF738FA4FF400411948FDF7B6
:1037300033FA4FF400511748FDF730FA0120FFF734
:10374000BFF84FF400611348FDF70CFA00B90124EB
:103750004FF400710F48FDF705FA00B902248021EB
:103760000C48FDF7FFF900B9032420210A48FDF7B2
:10377000F9F900B904244FF420610548FDF70CFA6B
:103780004FF420410348FDF707FA204610BD000022
:10379000000C0240001002400008024000B58BB04F
:1037A00001210846FDF763FC01210846FDF716FCE0
:1037B0000120099002208DF8280003208DF82900AF
:1037C00000208DF82A0001208DF82B0009A941481E
:1037D000FDF766F9012200213E48FDF7ECF944F6B9
:1037E0001F6007905320ADF818000020ADF82000AE
:1037F000ADF81A0006A94FF08040FEF730F86020BF
:10380000ADF804000120ADF806004FF4FA70039003
:103810000020ADF8100001A94FF08040FEF7B4F889
:103820000821C806FEF73DFA01218807FEF782F855
:1038300001218807FEF79CF80BB000BD10B50446C7
:103840002CB14FF4FA710807FEF7F7F905E040F2E2
:10385000DC514FF08040FEF7F0F910BD7FB5054612
:103860000C4601210220FDF702FC0020ADF80C00FF
:10387000ADF806000295ADF8044001A91648FDF721
:10388000EEFF012211461448FEF78AFC1D208DF838
:10389000000002208DF8010000208DF802000120B8
:1038A0008DF803006846FDF70AF801210A48FEF783
:1038B0005FF87FBD10B501210748FEF788FC20B1F5
:1038C00006480068401C0549086001210248FEF7CF
:1038D0008FFC10BD0000024000040040600000208A
:1038E00070477047704770477047754600F02CF876
:1038F000AE4605006946534620F00700854618B0DD
:1039000020B5FCF7C5FFBDE820404FF000064FF0A2
:1039100000074FF000084FF0000B21F00701AC4604
:10392000ACE8C009ACE8C009ACE8C009ACE8C00923
:103930008D46704710B50446AFF300802046BDE8C1
:103940001040FCF76ABC0000004870472C010020C2
:103950004FF04070E1EE100A7047FFFFFFFFFFFFDE
:10396000FFFFFFFFFFFFFFFFFFFFFFFFFFFFFFFF67
:10397000FFFFFFFFFFFFFFFFFFFFFFFFFFFFFFFF57
:10398000FFFFFFFFFFFFFFFFFFFFFFFFFFFFFFFF47
:10399000FFFFFFFFFFFFFFFFFFFFFFFFFFFFFFFF37
:107B5000FFFFFFFFFFFFFFFFFFFF94B2AD55AD55E5
:107B6000AD55AD55AD75B5B6B5B6B5B6B5B6B5B6D8
:107B7000B5B6B5B6B5B6B5B6B5B6B5B6B5B6B5B6AD
:107B8000B5B6B5B6B5B6B5B6B5B6B5B6B5B6B5B69D
:107B9000B5B6B5B6B5B6B5B6B5B6B5B6AD55A514A8
:107BA000B5B6B5B6B5B6B5B6B5B6B5B6B5B6B5B67D
:107BB000B5B6B5B6B5B6B5B6B5B6B5B6B5B6B5B66D
:107BC000B5B6B5B6B5B6B5B6B5B6B5B6B5B6B5B65D
:107BD000B5B6B5B6B5B6B5B6B5B6B5B6B5B6B5B64D
:107BE000B5B694B2B5B6B5B6B5B6B5B6B5B6B5B662
:107BF000B5B6B5B6B5B6B5B6B5B6B5B6B5B6B5B62D
:107C0000B5B6B5B6B5B6B5B6B5B6B5B6B5B6B5B61C
:107C1000B5B6B5B6B5B6B5B6B5B6B5B6B5B6B5B60C
:107C2000B5B6B5B6B5B694B2B5B6B5B6B5B6B5B621
:107C3000B5B6B5B6B5B6B5B6B5B6B5B6B5B6B5B6EC
:107C4000B5B6B5B6B5B6B5B6B5B6B5B6B5B6B5B6DC
:107C5000B5B6B5B6B5B6B5B6B5B6B5B6FFFFFFFFA6
:107C6000FFFFFFFFFFFFFFFFFFFFFFFFFFFFFFFF24
:107C7000FFFFFFFFFFFFFFFFFFFFFFFFFFFFFFFF14
:107C8000FFFFFFFFFFFFFFFFFFFFFFFFFFFFFFFF04
:107C9000FFFFFFFFFFFFFFFFFFFFFFFFE71CC638EF
:107CA000FFFFFFFFFFFFFFFFFFFFFFFFFFFFFFFFE4
:107CB000FFFFFFFFFFFFFFFFFFFFFFFFFFFFFFFFD4
:107CC000FFFFFFFFFFFFFFFFFFFFFFFFFFFFFFFFC4
:107CD000FFFFFFFFFFFFFFFFFFFFFFFFFFFFFFFFB4
:107CE000FFFFB5B6FFFFFFFFFFFFFFFFFFFFFFFF37
:107CF000FFFFFFFFFFFFFFFFFFFFFFFFFFFFFFFF94
:107D0000FFFFFFFFFFFFFFFFFFFFFFFFFFFFFFFF83
:107D1000FFFFFFFFFFFFFFFFFFFFFFFFFFFFFFFF73
:107D2000FFFFFFFFFFFFB5B6FFFFFFFFFFFFFFFFF6
:107D3000FFFFFFFFFFFFFFFFFFFFFFFFFFFFFFFF53
:107D4000FFFFFFFFFFFFFFFFFFFFFFFFFFFFFFFF43
:107D5000FFFFFFFFFFFFFFFFFFFFBDD7FFFFFFFF9D
:107D6000FFFFFFFFFFFFFFFFFFFFFFFFFFFFFFFF23
:107D7000FFFFFFFFFFFFFFFFFFFFFFFFFFFFFFFF13
:107D8000FFFFFFFFFFFFFFFFFFFFFFFFFFFFFFFF03
:107D9000FFFFFFFFFFFFFFFFFFFFFFFFE71CC638EE
:107DA000FFFFFFFFFFFFFFFFFFFFFFFFFFFFFFFFE3
:107DB000FFFFFFFFFFFFFFFFFFFFFFFFFFFFFFFFD3
:107DC000FFFFFFFFFFFFFFFFFFFFFFFFFFFFFFFFC3
:107DD000FFFFFFFFFFFFFFFFFFFFFFFFFFFFFFFFB3
:107DE000FFFFB5B6FFFFFFFFFFFFFFFFFFFFFFFF36
:107DF000FFFFFFFFFFFFFFFFFFFFFFFFFFFFFFFF93
:107E0000FFFFFFFFFFFFFFFFFFFFFFFFFFFFFFFF82
:107E1000FFFFFFFFFFFFFFFFFFFFFFFFFFFFFFFF72
:107E2000FFFFFFFFFFFFB5B6FFFFFFFFFFFFFFFFF5
:107E3000FFFFFFFFFFFFFFFFFF7DFFFFFFFFFFFFD4
:107E4000FFFFFFFFFFFFFFFFFFFFFFFFFFFFFFFF42
:107E5000FFFFFFFFFFFFFFFFFFFFBDD7FFFFFFFF9C
:107E6000FFFFFFFFFFFFFFFFFFFFFFFFFFFFFFFF22
:107E7000FFFFFFFFFFFFFFFFFFFFFFFFFFFFFFFF12
:107E8000FFFFFFFFFFFFFFFFFFFFFFFFFFFFFFFF02
:107E9000FFFFFFFFFFFFFFFFFFFFFFFFE71CC638ED
:107EA000FFFFFFFFFFFFFFFFFFFFFFFFFFFFFFFFE2
:107EB000FFFFFFFFFFFFFFFFFFFFFFFFFFFFFFFFD2
:107EC000FFFFFFFFFFFFFFFFFFFFFFFFFFFFFFFFC2
:107ED000FFFFFFFFFFFFFFFFFFFFFFFFFFFFFFFFB2
:107EE000FFFFB5B6FFFFFFFFFFFFFFFFFFFFFFFF35
:107EF000FFFFFFFFFFFFFFFFFFFFFFFFFFFFFFFF92
:107F0000FFFFFFFFFFFFFFFFFFFFFFFFFFFFFFFF81
:107F1000FFFFFFFFFFFFFFFFFFFFFFFFFFFFFFFF71
:107F2000FFFFFFFFFFFFB5B6FFFFFFFFFFFFFFFFF4
:107F3000FFFFFF5CFF1CFF7DFCB0FBB0FF9EFF9EC0
:107F4000FEBAFFBFFEBAFD74FD34FCD3FE18FE7905
:107F5000FE58FB6EFEDDFFFFFFFFBDD7FFFFFFFFFB
:107F6000FFFFFFFFFFFFFF7CFD34FF7EFFFFFFFFF2
:107F7000FFFFFFFFFFFFFFFFFFFFFFFFFFFFFFFF11
:107F8000FFFFFFFFFFFFFFFFFFFFFFFFFFFFFFFF01
:107F9000FFFFFFFFFFFFFFFFFFFFFFFFE71CC638EC
:107FA000FFFFFFFFFFFFFFFFFFDEFDB5FCD3FF3D3F
:107FB000FFFFFFFFFFFFFFFFFFFFFFFFFFFFFFFFD1
:107FC000FFFFFFFFFFFFFFFFFFFFFFFFFFFFFFFFC1
:107FD000FFFFFFFFFFFFFFFFFFFFFFFFFFFFFFFFB1
:107FE000FFFFB5B6FFFFFFFFFFFFFFFFFFFFFE58DC
:107FF000FC92FE59FFFFFFFFFFFFFFFFFFFFFFFFA8
:10800000FFFFFFFFFFFFFFFFFFFFFFFFFFFFFFFF80
:10801000FFFFFFFFFFFFFFFFFFFFFFFFFFFFFFFF70
:10802000FFFFFFFFFFFFB5B6FFFFFFFFFFFFFFFFF3
:10803000FFFFFB2AFD37FEFBFC70FD97FE17FD7569
:10804000FA69FEDDFFDFFB6BFCF6FFDFFDD5FD56B9
:10805000FFBDFA29FF7FFFFFFFFFBDD7FFFFFFFF37
:10806000FFFFFFFFFE57F9A4F800FE7CFFFFFFFFB4
:10807000FFFFFFFFFFFFFFFFFFFFFFFFFFFFFFFF10
:10808000FFFFFFFFFFFFFFFFFFFFFFFFFFFFFFFF00
:10809000FFFFFFFFFFFFFFFFFFFFFFFFE71CC638EB
:1080A000FFFFFFFFFFFFFFFFFD11FB2DF9A4F90507
:1080B000FF5EFFFFFFFFFFFFFFFFFFFFFFFFFFFF71
:1080C000FFFFFFFFFFFFFFFFFFFFFFFFFFFFFFFFC0
:1080D000FFFFFFFFFFFFFFFFFFFFFFFFFFFFFFFFB0
:1080E000FFFFB5B6FFFFFFFFFFFFFFFFFE98FAABF4
:1080F000FB6CF841FDD9FFFFFFFFFFFFFFFFFFFF14
:10810000FFFFFFFFFFFFFFFFFFFFFFFFFFFFFFFF7F
:10811000FFFFFFFFFFFFFFFFFFFFFFFFFFFFFFFF6F
:10812000FFFFFFFFFFFFB5B6FFFFFFFFFFFFFFFFF2
:10813000FFDEFD96FF3DFD75FB6DFC72FAABFCD4D6
:10814000FF7EFFFFFFFFFAEBFE5AFF9EFC6FFCB5C0
:10815000FFBCFAABFFFFFFFFFFFFBDD7FFFFFFFF35
:10816000FFFFFFFFFEDAFDB5F8A1FE7CFFFFFFFF7A
:10817000FFFFFFFFFFFFFFFFFFFFFFFFFFFFFFFF0F
:10818000FFFFFFFFFFFFFFFFFFFFFFFFFFFFFFFFFF
:10819000FFFFFFFFFFFFFFFFFFFFFFFFE71CC638EA
:1081A000FFFFFFFFFFFFFFFFFF9EFFFFFD92F800B5
:1081B000FEBCFFFFFFFFFFFFFFFFFFFFFFFFFFFF13
:1081C000FFFFFFFFFFFFFFFFFFFFFFFFFFFFFFFFBF
:1081D000FFFFFFFFFFFFFFFFFFFFFFFFFFFFFFFFAF
:1081E000FFFFB5B6FFFFFFFFFFFFFFFFFFBEFFFF73
:1081F000FFDDF860FCF6FFFFFFFFFFFFFFFFFFFF63
:10820000FFFFFFFFFFFFFFFFFFFFFFFFFFFFFFFF7E
:10821000FFFFFFFFFFFFFFFFFFFFFFFFFFFFFFFF6E
:10822000FFFFFFFFFFFFB5B6FFFFFFFFFFFFFFFFF1
:10823000FFFFFE97FB6EFAA9FC10FB2CFE5AFD74A3
:10824000FAACFFDFFE97F9C9FC2FFCF5FBEDFD78DA
:10825000FE97FAACFFDFFFFFFFFFBDD7FFFFFFFF79
:10826000FFFFFFFFFFFFFF5BF8A1FE7CFFFFFFFFAB
:10827000FFFFFFFFFFFFFFFFFFFFFFFFFFFFFFFF0E
:10828000FFFFFFFFFFFFFFFFFFFFFFFFFFFFFFFFFE
:10829000FFFFFFFFFFFFFFFFFFFFFFFFE71CC638E9
:1082A000FFFFFFFFFFFFFFFFFFFFFFFFFA46F9C9D8
:1082B000FFDFFFFFFFFFFFFFFFFFFFFFFFFFFFFFEE
:1082C000FFFFFFFFFFFFFFFFFFFFFFFFFFFFFFFFBE
:1082D000FFFFFFFFFFFFFFFFFFFFFFFFFFFFFFFFAE
:1082E000FFFFB5B6FFFFFFFFFFFFFFFFFFFFFB6BC9
:1082F000F924F947FF7EFFFFFFFFFFFFFFFFFFFFAE
:10830000FFFFFFFFFFFFFFFFFFFFFFFFFFFFFFFF7D
:10831000FFFFFFFFFFFFFFFFFFFFFFFFFFFFFFFF6D
:10832000FFFFFFFFFFFFB5B6FFFFFFFFFFFFFFFFF0
:10833000FFDFFDB4FC92F9A4FA4AFE17FB6CFE19AC
:10834000FD34FFDFFBEDFA2BFD33FCF5FCF2FD976E
:10835000FDF7FC70FB2DFFDFFFFFBDD7FFFFFFFF29
:10836000FFFFFFFFFFFFFF9BF8A1FEBCFFFFFFFF2A
:10837000FFFFFFFFFFFFFFFFFFFFFFFFFFFFFFFF0D
:10838000FFFFFFFFFFFFFFFFFFFFFFFFFFFFFFFFFD
:10839000FFFFFFFFFFFFFFFFFFFFFFFFE71CC638E8
:1083A000FFFFFFFFFFFFFFFFFFFFFC2DF8C4FF1ED5
:1083B000FFFFFFFFFFFFFFFFFFFFFFFFFFFFFFFFCD
:1083C000FFFFFFFFFFFFFFFFFFFFFFFFFFFFFFFFBD
:1083D000FFFFFFFFFFFFFFFFFFFFFFFFFFFFFFFFAD
:1083E000FFFFB5B6FFFFFFFFFFFFFFFFFFFFFF5CD3
:1083F000FE98F923FB0FFFFFFFFFFFFFFFFFFFFFCB
:10840000FFFFFFFFFFFFFFFFFFFFFFFFFFFFFFFF7C
:10841000FFFFFFFFFFFFFFFFFFFFFFFFFFFFFFFF6C
:10842000FFFFFFFFFFFFB5B6FFFFFFFFFFFFFFFFEF
:10843000FFBEFE9AFDF7FEDBFD12FC11FEBAFEBA8E
:10844000FFFFFFFFFE98FB4FFD12FBF1FF5DFF5D9D
:10845000FE79FD74FAEDFFFFFFFFBDD7FFFFFFFFC1
:10846000FFFFFFFFFF5CFD73F800FC94FF5DFFFF63
:10847000FFFFFFFFFFFFFFFFFFFFFFFFFFFFFFFF0C
:10848000FFFFFFFFFFFFFFFFFFFFFFFFFFFFFFFFFC
:10849000FFFFFFFFFFFFFFFFFFFFFFFFE71CC638E7
:1084A000FFFFFFFFFFFFFFFFFCD0F800FC53FE388B
:1084B000FF5DFFFFFFFFFFFFFFFFFFFFFFFFFFFF6E
:1084C000FFFFFFFFFFFFFFFFFFFFFFFFFFFFFFFFBC
:1084D000FFFFFFFFFFFFFFFFFFFFFFFFFFFFFFFFAC
:1084E000FFFFB5B6FFFFFFFFFFFFFFFFFE98FD9602
:1084F000FDF7F860FB50FFFFFFFFFFFFFFFFFFFFEF
:10850000FFFFFFFFFFFFFFFFFFFFFFFFFFFFFFFF7B
:10851000FFFFFFFFFFFFFFFFFFFFFFFFFFFFFFFF6B
:10852000FFFFFFFFFFFFB5B6FFFFFFFFFFFFFFFFEE
:10853000FFFFFFBDFAABFFFFFD11FC33FFFFFB2A7E
:10854000FE7BFFFFFFBDFAEBFBADFB4FFEBAFEBAB1
:10855000FE59FCB0FB90FFFFFFFFBDD7FFFFFFFF01
:10856000FFFFFFFFFE36FA69FA8AFA69FE3AFFFF5B
:10857000FFFFFFFFFFFFFFFFFFFFFFFFFFFFFFFF0B
:10858000FFFFFFFFFFFFFFFFFFFFFFFFFFFFFFFFFB
:10859000FFFFFFFFFFFFFFFFFFFFFFFFE71CC638E6
:1085A000FFFFFFFFFFFFFFFFFC6FFA8AFA8AFA69FD
:1085B000FE3AFFFFFFFFFFFFFFFFFFFFFFFFFFFF91
:1085C000FFFFFFFFFFFFFFFFFFFFFFFFFFFFFFFFBB
:1085D000FFFFFFFFFFFFFFFFFFFFFFFFFFFFFFFFAB
:1085E000FFFFB5B6FFFFFFFFFFFFFFFFFE98FB0B8E
:1085F000FA69FC51FFBFFFFFFFFFFFFFFFFFFFFF17
:10860000FFFFFFFFFFFFFFFFFFFFFFFFFFFFFFFF7A
:10861000FFFFFFFFFFFFFFFFFFFFFFFFFFFFFFFF6A
:10862000FFFFFFFFFFFFB5B6FFFFFFFFFFFFFFFFED
:10863000FFFFFF7CFA29FE9AFC2FFBF1FE9AF9E876
:10864000FEBCFFFFFF5BFB2DFE79FE9BFFFFFFFFE4
:10865000FE17FACAFCB5FFFFFFFFBDD7FFFFFFFF04
:10866000FFFFFFFFFFFFFFFFFFFFFFFFFFFFFFFF1A
:10867000FFFFFFFFFFFFFFFFFFFFFFFFFFFFFFFF0A
:10868000FFFFFFFFFFFFFFFFFFFFFFFFFFFFFFFFFA
:10869000FFFFFFFFFFFFFFFFFFFFFFFFE71CC638E5
:1086A000FFFFFFFFFFFFFFFFFFFFFFFFFFFFFFFFDA
:1086B000FFFFFFFFFFFFFFFFFFFFFFFFFFFFFFFFCA
:1086C000FFFFFFFFFFFFFFFFFFFFFFFFFFFFFFFFBA
:1086D000FFFFFFFFFFFFFFFFFFFFFFFFFFFFFFFFAA
:1086E000FFFFB5B6FFFFFFFFFFFFFFFFFFFFFFFF2D
:1086F000FFFFFFFFFFFFFFFFFFFFFFFFFFFFFFFF8A
:10870000FFFFFFFFFFFFFFFFFFFFFFFFFFFFFFFF79
:10871000FFFFFFFFFFFFFFFFFFFFFFFFFFFFFFFF69
:10872000FFFFFFFFFFFFB5B6FFFFFFFFFFFFFFFFEC
:10873000FFFFFFDEFEDBFF5DFF7DFF7DFF5DFD34A4
:10874000FF5EFFFFFFFFFF9EFFFFFFFFFFFFFFFF3B
:10875000FF1AFC51FFBFFFFFFFFFBDD7FFFFFFFF69
:10876000FFFFFFFFFFFFFFFFFFFFFFFFFFFFFFFF19
:10877000FFFFFFFFFFFFFFFFFFFFFFFFFFFFFFFF09
:10878000FFFFFFFFFFFFFFFFFFFFFFFFFFFFFFFFF9
:10879000FFFFFFFFFFFFFFFFFFFFFFFFE71CC638E4
:1087A000FFFFFFFFFFFFFFFFFFFFFFFFFFFFFFFFD9
:1087B000FFFFFFFFFFFFFFFFFFFFFFFFFFFFFFFFC9
:1087C000FFFFFFFFFFFFFFFFFFFFFFFFFFFFFFFFB9
:1087D000FFFFFFFFFFFFFFFFFFFFFFFFFFFFFFFFA9
:1087E000FFFFB5B6FFFFFFFFFFFFFFFFFFFFFFFF2C
:1087F000FFFFFFFFFFFFFFFFFFFFFFFFFFFFFFFF89
:10880000FFFFFFFFFFFFFFFFFFFFFFFFFFFFFFFF78
:10881000FFFFFFFFFFFFFFFFFFFFFFFFFFFFFFFF68
:10882000FFFFFFFFFFFFB5B6FFFFFFFFFFFFFFFFEB
:10883000FFFFFFFFFFFFFFFFFFFFFFFFFFFFFFFF48
:10884000FFFFFFFFFFFFFFFFFFFFFFFFFFFFFFFF38
:10885000FFFFFFFFFFFFFFFFFFFFBDD7FFFFFFFF92
:10886000FFFFFFFFFFFFFFFFFFFFFFFFFFFFFFFF18
:10887000FFFFFFFFFFFFFFFFFFFFFFFFFFFFFFFF08
:10888000FFFFFFFFFFFFFFFFFFFFFFFFFFFFFFFFF8
:10889000FFFFFFFFFFFFFFFFFFFFFFFFE71CC638E3
:1088A000FFFFFFFFFFFFFFFFFFFFFFFFFFFFFFFFD8
:1088B000FFFFFFFFFFFFFFFFFFFFFFFFFFFFFFFFC8
:1088C000FFFFFFFFFFFFFFFFFFFFFFFFFFFFFFFFB8
:1088D000FFFFFFFFFFFFFFFFFFFFFFFFFFFFFFFFA8
:1088E000FFFFB5B6FFFFFFFFFFFFFFFFFFFFFFFF2B
:1088F000FFFFFFFFFFFFFFFFFFFFFFFFFFFFFFFF88
:10890000FFFFFFFFFFFFFFFFFFFFFFFFFFFFFFFF77
:10891000FFFFFFFFFFFFFFFFFFFFFFFFFFFFFFFF67
:10892000FFFFFFFFFFFFB5B6FFFFFFFFFFFFFFFFEA
:10893000FFFFFFFFFFFFFFFFFFFFFFFFFFFFFFFF47
:10894000FFFFFFFFFFFFFFFFFFFFFFFFFFFFFFFF37
:10895000FFFFFFFFFFFFFFFFFFFFBDF7FFFFFFFF71
:10896000FFFFFFFFFFFFFFFFFFFFFFFFFFFFFFFF17
:10897000FFFFFFFFFFFFFFFFFFFFFFFFFFFFFFFF07
:10898000FFFFFFFFFFFFFFFFFFFFFFFFFFFFFFFFF7
:10899000FFFFFFFFFFFFFFFFFFFFFFFFEF5DCE5970
:1089A000FFFFFFFFFFFFFFFFFFFFFFFFFFFFFFFFD7
:1089B000FFFFFFFFFFFFFFFFFFFFFFFFFFFFFFFFC7
:1089C000FFFFFFFFFFFFFFFFFFFFFFFFFFFFFFFFB7
:1089D000FFFFFFFFFFFFFFFFFFFFFFFFFFFFFFFFA7
:1089E000FFFFBDF7FFFFFFFFFFFFFFFFFFFFFFFFE1
:1089F000FFFFFFFFFFFFFFFFFFFFFFFFFFFFFFFF87
:108A0000FFFFFFFFFFFFFFFFFFFFFFFFFFFFFFFF76
:108A1000FFFFFFFFFFFFFFFFFFFFFFFFFFFFFFFF66
:108A2000FFFFFFFFFFFFBDF7FFFFFFFFFFFFFFFFA0
:108A3000FFFFFFFFFFFFFFFFFFFFFFFFFFFFFFFF46
:108A4000FFFFFFFFFFFFFFFFFFFFFFFFFFFFFFFF36
:108A5000FFFFFFFFFFFFFFFFFFFF8C51BDF7BDF7DB
:108A6000BDF7BDF7BDF7BDF7BDF7BDF7BDF7BDF766
:108A7000BDF7BDF7BDF7BDF7BDF7BDF7BDF7BDF756
:108A8000BDF7BDF7BDF7BDF7BDF7BDF7BDF7BDF746
:108A9000BDF7BDF7BDF7BDF7BDF7BDF7AD5594B256
:108AA000BDF7BDF7BDF7BDF7BDF7BDF7BDF7BDF726
:108AB000BDF7BDF7BDF7BDF7BDF7BDF7BDF7BDF716
:108AC000BDF7BDF7BDF7BDF7BDF7BDF7BDF7BDF706
:108AD000BDF7BDF7BDF7BDF7BDF7BDF7BDF7BDF7F6
:108AE000BDF78C51BDF7BDF7BDF7BDF7BDF7BDF7BD
:108AF000BDF7BDF7BDF7BDF7BDF7BDF7BDF7BDF7D6
:108B0000BDF7BDF7BDF7BDF7BDF7BDF7BDF7BDF7C5
:108B1000BDF7BDF7BDF7BDF7BDF7BDF7BDF7BDF7B5
:108B2000BDF7BDF7BDF78C51BDF7BDF7BDF7BDF77C
:108B3000BDF7BDF7BDF7BDF7BDF7BDF7BDF7BDF795
:108B4000BDF7BDF7BDF7BDF7BDF7BDF7BDF7BDF785
:108B5000BDF7BDF7BDF7BDF7BDF7AD75EF7DEF7D97
:108B6000EF7DEF7DEF7DEF7DEF7DEF7DEF7DEF7DA5
:108B7000EF7DEF7DEF7DEF7DEF7DEF7DEF7DEF7D95
:108B8000EF7DEF7DEF7DEF7DEF7DEF7DEF7DEF7D85
:108B9000EF7DEF7DEF7DEF7DEF7DEF7DD6BABDD729
:108BA000EF7DEF7DEF7DEF7DEF7DEF7DEF7DEF7D65
:108BB000EF7DEF7DEF7DEF7DEF7DEF7DEF7DEF7D55
:108BC000EF7DEF7DEF7DEF7DEF7DEF7DEF7DEF7D45
:108BD000EF7DEF7DEF7DEF7DEF7DEF7DEF7DEF7D35
:108BE000EF7DAD55EF7DEF7DEF7DEF7DEF7DEF7D8F
:108BF000EF7DEF7DEF7DEF7DEF7DEF7DEF7DEF7D15
:108C0000EF7DEF7DEF7DEF7DEF7DEF7DEF7DEF7D04
:108C1000EF7DEF7DEF7DEF7DEF7DEF7DEF7DEF7DF4
:108C2000EF7DEF7DEF7DAD55EF7DEF7DEF7DEF7D4E
:108C3000EF7DEF7DEF7DEF7DEF7DEF7DEF7DEF7DD4
:108C4000EF7DEF7DEF7DEF7DEF7DEF7DEF7DEF7DC4
:108C5000EF7DEF7DEF7DEF7DEF7DBDF7FFFFFFFF48
:108C6000FFFFFFFFFFFFFFFFFFFFFFFFFFFFFFFF14
:108C7000FFFFFFFFFFFFFFFFFFFFFFFFFFFFFFFF04
:108C8000FFFFFFFFFFFFFFFFFFFFFFFFFFFFFFFFF4
:108C9000FFFFFFFFFFFFFFFFFFFFFFFFE73CC638BF
:108CA000FFFFFFFFFFFFFFFFFFFFFFFFFFFFFFFFD4
:108CB000FFFFFFFFFFFFFFFFFFFFFFFFFFFFFFFFC4
:108CC000FFFFFFFFFFFFFFFFFFFFFFFFFFFFFFFFB4
:108CD000FFFFFFFFFFFFFFFFFFFFFFFFFFFFFFFFA4
:108CE000FFFFBDD7FFFFFFFFFFFFFFFFFFFFFFFFFE
:108CF000FFFFFFFFFFFFFFFFFFFFFFFFFFFFFFFF84
:108D0000FFFFFFFFFFFFFFFFFFFFFFFFFFFFFFFF73
:108D1000FFFFFFFFFFFFFFFFFFFFFFFFFFFFFFFF63
:108D2000FFFFFFFFFFFFBDD7FFFFFFFFFFFFFFFFBD
:108D3000FFFFFFFFFFFFFFFFFFFFFFFFFFFFFFFF43
:108D4000FFFFFFFFFFFFFFFFFFFFFFFFFFFFFFFF33
:108D5000FFFFFFFFFFFFFFFFFFFFBDD7FFFFFFFF8D
:108D6000FFFFFFFFFFFFFFFFFFFFFFFFFFFFFFFF13
:108D7000FFFFFFFFFFFFFFFFFFFFFFFFFFFFFFFF03
:108D8000FFFFFFFFFFFFFFFFFFFFFFFFFFFFFFFFF3
:108D9000FFFFFFFFFFFFFFFFFFFFFFFFE71CC638DE
:108DA000FFFFFFFFFFFFFFFFFFFFFFFFFFFFFFFFD3
:108DB000FFFFFFFFFFFFFFFFFFFFFFFFFFFFFFFFC3
:108DC000FFFFFFFFFFFFFFFFFFFFFFFFFFFFFFFFB3
:108DD000FFFFFFFFFFFFFFFFFFFFFFFFFFFFFFFFA3
:108DE000FFFFB5B6FFFFFFFFFFFFFFFFFFFFFFFF26
:108DF000FFFFFFFFFFFFFFFFFFFFFFFFFFFFFFFF83
:108E0000FFFFFFFFFFFFFFFFFFFFFFFFFFFFFFFF72
:108E1000FFFFFFFFFFFFFFFFFFFFFFFFFFFFFFFF62
:108E2000FFFFFFFFFFFFB5B6FFFFFFFFFFFFFFFFE5
:108E3000FFFFFFFFFDB5FEFDFEFBFE59FFFFFFFF3D
:108E4000FFDFFFFFFFFFFFFFFE18FFBFFFDEFD9606
:108E5000FFBFFFFFFFFFFFFFFFFFBDD7FFFFFFFFCC
:108E6000FFFFFFFFFFFFFFFFFFFFFFFFFFFFFFFF12
:108E7000FFFFFFFFFFFFFFFFFFFFFFFFFFFFFFFF02
:108E8000FFFFFFFFFFFFFFFFFFFFFFFFFFFFFFFFF2
:108E9000FFFFFFFFFFFFFFFFFFFFFFFFE71CC638DD
:108EA000FFFFFFFFFFFFFFFFFFFFFFFFFFFFFFFFD2
:108EB000FFFFFFFFFFFFFFFFFFFFFFFFFFFFFFFFC2
:108EC000FFFFFFFFFFFFFFFFFFFFFFFFFFFFFFFFB2
:108ED000FFFFFFFFFFFFFFFFFFFFFFFFFFFFFFFFA2
:108EE000FFFFB5B6FFFFFFFFFFFFFFFFFFFFFFFF25
:108EF000FFFFFFFFFFFFFFFFFFFFFFFFFFFFFFFF82
:108F0000FFFFFFFFFFFFFFFFFFFFFFFFFFFFFFFF71
:108F1000FFFFFFFFFFFFFFFFFFFFFFFFFFFFFFFF61
:108F2000FFFFFFFFFFFFB5B6FFFFFFFFFFFFFFFFE4
:108F3000FFFFFFFFFB09FDB9FD52FB4FFEDAFB2CE3
:108F4000FD77FFFFFFFFFE97FA6BFFBFFFFFFBAC54
:108F5000FC53FFBEFE9BFFFFFFFFBDD7FFFFFFFFE0
:108F6000FFFFFFFFFFFFFF7CF9E7FAEDFFFFFFFFC9
:108F7000FFFFFFFFFFFFFFFFFFFFFFFFFFFFFFFF01
:108F8000FFFFFFFFFFFFFFFFFFFFFFFFFFFFFFFFF1
:108F9000FFFFFFFFFFFFFFFFFFFFFFFFE71CC638DC
:108FA000FFFFFFFFFFFFFFFFFD93F9E7F9E8FA6B13
:108FB000FF9FFFFFFFFFFFFFFFFFFFFFFFFFFFFF21
:108FC000FFFFFFFFFFFFFFFFFFFFFFFFFFFFFFFFB1
:108FD000FFFFFFFFFFFFFFFFFFFFFFFFFFFFFFFFA1
:108FE000FFFFB5B6FFFFFFFFFFFFFFFFFFFFFE36EE
:108FF000FA68F9E8FDD9FFFFFFFFFFFFFFFFFFFF62
:10900000FFFFFFFFFFFFFFFFFFFFFFFFFFFFFFFF70
:10901000FFFFFFFFFFFFFFFFFFFFFFFFFFFFFFFF60
:10902000FFFFFFFFFFFFB5B6FFFFFFFFFFFFFFFFE3
:10903000FFBEFE38FAA9FB8FFB0BFACCFD97FEDBD7
:10904000FD75FF7FFFFFFBCEFE9BFCD3FC51FDF7C0
:10905000FD33FAEBFCD4FFDFFFFFBDD7FFFFFFFFBF
:10906000FFFFFFFFFFFFFBEDF924F947FFFFFFFFC5
:10907000FFFFFFFFFFFFFFFFFFFFFFFFFFFFFFFF00
:10908000FFFFFFFFFFFFFFFFFFFFFFFFFFFFFFFFF0
:10909000FFFFFFFFFFFFFFFFFFFFFFFFE71CC638DB
:1090A000FFFFFFFFFFFFFFFFFC2DF9EAFF5DFF5D04
:1090B000FFFFFFFFFFFFFFFFFFFFFFFFFFFFFFFFC0
:1090C000FFFFFFFFFFFFFFFFFFFFFFFFFFFFFFFFB0
:1090D000FFFFFFFFFFFFFFFFFFFFFFFFFFFFFFFFA0
:1090E000FFFFB5B6FFFFFFFFFFFFFFFFFF5BF8C20B
:1090F000FD36FF3CFF3DFFFFFFFFFFFFFFFFFFFFD0
:10910000FFFFFFFFFFFFFFFFFFFFFFFFFFFFFFFF6F
:10911000FFFFFFFFFFFFFFFFFFFFFFFFFFFFFFFF5F
:10912000FFFFFFFFFFFFB5B6FFFFFFFFFFFFFFFFE2
:10913000FFFFFFDEFB6BFD78FD52FAACFEBAFE9A34
:10914000FA48FE7CFCD0FB4FFBCEFC53FCF2FF1E2A
:10915000FDF4FB0EFFFFFFFFFFFFBDD7FFFFFFFF8B
:10916000FFFFFFFFFEF9FA2AFCB0F947FFFFFFFF00
:10917000FFFFFFFFFFFFFFFFFFFFFFFFFFFFFFFFFF
:10918000FFFFFFFFFFFFFFFFFFFFFFFFFFFFFFFFEF
:10919000FFFFFFFFFFFFFFFFFFFFFFFFE71CC638DA
:1091A000FFFFFFFFFFFFFFFFFC4EF8C4FBCFFE19E0
:1091B000FFFFFFFFFFFFFFFFFFFFFFFFFFFFFFFFBF
:1091C000FFFFFFFFFFFFFFFFFFFFFFFFFFFFFFFFAF
:1091D000FFFFFFFFFFFFFFFFFFFFFFFFFFFFFFFF9F
:1091E000FFFFB5B6FFFFFFFFFFFFFFFFFD92F8C4D3
:1091F000FC51FC32FF7EFFFFFFFFFFFFFFFFFFFF81
:10920000FFFFFFFFFFFFFFFFFFFFFFFFFFFFFFFF6E
:10921000FFFFFFFFFFFFFFFFFFFFFFFFFFFFFFFF5E
:10922000FFFFFFFFFFFFB5B6FFFFFFFFFFFFFFFFE1
:10923000FFFFFFBEFA67FB50FEDBFD96FD96FD7556
:10924000FCF5FFBEFF1CFD33FB8FFFFFFDB4FD7778
:10925000FC2EFD37FFFFFFFFFFFFBDD7FFFFFFFF26
:10926000FFFFFFFFFB2AFD37FD92F947FFFFFFFFDE
:10927000FFFFFFFFFFFFFFFFFFFFFFFFFFFFFFFFFE
:10928000FFFFFFFFFFFFFFFFFFFFFFFFFFFFFFFFEE
:10929000FFFFFFFFFFFFFFFFFFFFFFFFE71CC638D9
:1092A000FFFFFFFFFFFFFFFFFEDAFCD3FB6CF8219F
:1092B000FE3AFFFFFFFFFFFFFFFFFFFFFFFFFFFF84
:1092C000FFFFFFFFFFFFFFFFFFFFFFFFFFFFFFFFAE
:1092D000FFFFFFFFFFFFFFFFFFFFFFFFFFFFFFFF9E
:1092E000FFFFB5B6FFFFFFFFFFFFFFFFFD11F862B5
:1092F000FC51F9E6FA4CFFFFFFFFFFFFFFFFFFFF06
:10930000FFFFFFFFFFFFFFFFFFFFFFFFFFFFFFFF6D
:10931000FFFFFFFFFFFFFFFFFFFFFFFFFFFFFFFF5D
:10932000FFFFFFFFFFFFB5B6FFFFFFFFFFFFFFFFE0
:10933000FF1BFB2CF965FE7CFE15FB4FFEFBFD744D
:10934000FAEDFFFFFE57FA69FDD8FEFCFF7CFAA993
:10935000FA2AFF7EFFFFFFFFFFFFBDD7FFFFFFFFE2
:10936000FFFFFFDDF924F9E8F944F841FCF6FFFFBF
:10937000FFFFFFFFFFFFFFFFFFFFFFFFFFFFFFFFFD
:10938000FFFFFFFFFFFFFFFFFFFFFFFFFFFFFFFFED
:10939000FFFFFFFFFFFFFFFFFFFFFFFFE71CC638D8
:1093A000FFFFFFFFFFFFFFFFFFFFFFFFFFFEF800D4
:1093B000FCF6FFFFFFFFFFFFFFFFFFFFFFFFFFFFC9
:1093C000FFFFFFFFFFFFFFFFFFFFFFFFFFFFFFFFAD
:1093D000FFFFFFFFFFFFFFFFFFFFFFFFFFFFFFFF9D
:1093E000FFFFB5B6FFFFFFFFFFFFFFFFFD92F8C4D1
:1093F000FFFFFCAFF905FFFFFFFFFFFFFFFFFFFFD0
:10940000FFFFFFFFFFFFFFFFFFFFFFFFFFFFFFFF6C
:10941000FFFFFFFFFFFFFFFFFFFFFFFFFFFFFFFF5C
:10942000FFFFFFFFFFFFB5B6FFFFFFFFFFFFFFFFDF
:10943000FFDEFF7EFB6BFE3BFDF4FAACFEBAFD12D5
:10944000FB0EFFFFFE36FC72FDF7FE19FFFFF9A4CD
:10945000FA8DFFFFFFFFFFFFFFFFBDD7FFFFFFFFFD
:10946000FFFFFFFFFEFBFE9AFBECF8C4FF3DFFFF92
:10947000FFFFFFFFFFFFFFFFFFFFFFFFFFFFFFFFFC
:10948000FFFFFFFFFFFFFFFFFFFFFFFFFFFFFFFFEC
:10949000FFFFFFFFFFFFFFFFFFFFFFFFE71CC638D7
:1094A000FFFFFFFFFFFFFFFFFC6FFAABF9E7F9C912
:1094B000FF5EFFFFFFFFFFFFFFFFFFFFFFFFFFFF5D
:1094C000FFFFFFFFFFFFFFFFFFFFFFFFFFFFFFFFAC
:1094D000FFFFFFFFFFFFFFFFFFFFFFFFFFFFFFFF9C
:1094E000FFFFB5B6FFFFFFFFFFFFFFFFFF7CF94463
:1094F000FA29F944FCF6FFFFFFFFFFFFFFFFFFFF24
:10950000FFFFFFFFFFFFFFFFFFFFFFFFFFFFFFFF6B
:10951000FFFFFFFFFFFFFFFFFFFFFFFFFFFFFFFF5B
:10952000FFFFFFFFFFFFB5B6FFFFFFFFFFFFFFFFDE
:10953000FFFFFFFFFB2AFDFAFDF4FACCFEFBFD73F3
:10954000FAEDFFFFFDF6FBCFFD96FE59FC2FFB8EDB
:10955000FAA9FBF1FF7EFFFFFFFFBDD7FFFFFFFF73
:10956000FFFFFFFFFFFFFFFFFF5CFE59FFFFFFFF55
:10957000FFFFFFFFFFFFFFFFFFFFFFFFFFFFFFFFFB
:10958000FFFFFFFFFFFFFFFFFFFFFFFFFFFFFFFFEB
:10959000FFFFFFFFFFFFFFFFFFFFFFFFE71CC638D6
:1095A000FFFFFFFFFFFFFFFFFF5CFD96FDF7FFDF03
:1095B000FFFFFFFFFFFFFFFFFFFFFFFFFFFFFFFFBB
:1095C000FFFFFFFFFFFFFFFFFFFFFFFFFFFFFFFFAB
:1095D000FFFFFFFFFFFFFFFFFFFFFFFFFFFFFFFF9B
:1095E000FFFFB5B6FFFFFFFFFFFFFFFFFFFFFFBD60
:1095F000FD75FE9BFFFFFFFFFFFFFFFFFFFFFFFF6C
:10960000FFFFFFFFFFFFFFFFFFFFFFFFFFFFFFFF6A
:10961000FFFFFFFFFFFFFFFFFFFFFFFFFFFFFFFF5A
:10962000FFFFFFFFFFFFB5B6FFFFFFFFFFFFFFFFDD
:10963000FFFFFE15F9E7FF1EFE15FB4FFEBAFD7496
:10964000FB90FFFFFE79FE79FE99FC92FD97FFFFEC
:10965000FFBEFB2AFBF1FFBFFFFFBDD7FFFFFFFFF0
:10966000FFFFFFFFFFFFFFFFFFFFFFFFFFFFFFFF0A
:10967000FFFFFFFFFFFFFFFFFFFFFFFFFFFFFFFFFA
:10968000FFFFFFFFFFFFFFFFFFFFFFFFFFFFFFFFEA
:10969000FFFFFFFFFFFFFFFFFFFFFFFFE71CC638D5
:1096A000FFFFFFFFFFFFFFFFFFFFFFFFFFFFFFFFCA
:1096B000FFFFFFFFFFFFFFFFFFFFFFFFFFFFFFFFBA
:1096C000FFFFFFFFFFFFFFFFFFFFFFFFFFFFFFFFAA
:1096D000FFFFFFFFFFFFFFFFFFFFFFFFFFFFFFFF9A
:1096E000FFFFB5B6FFFFFFFFFFFFFFFFFFFFFFFF1D
:1096F000FFFFFFFFFFFFFFFFFFFFFFFFFFFFFFFF7A
:10970000FFFFFFFFFFFFFFFFFFFFFFFFFFFFFFFF69
:10971000FFFFFFFFFFFFFFFFFFFFFFFFFFFFFFFF59
:10972000FFFFFFFFFFFFB5B6FFFFFFFFFFFFFFFFDC
:10973000FFFFFFFFFF5DFFFFFFBEFFFFFFFFFFFF1C
:10974000FFDFFFFFFFFFFFFFFF1CFFFFFFFFFFFF2C
:10975000FFFFFFFFFFFFFFFFFFFFBDD7FFFFFFFF83
:10976000FFFFFFFFFFFFFFFFFFFFFFFFFFFFFFFF09
:10977000FFFFFFFFFFFFFFFFFFFFFFFFFFFFFFFFF9
:10978000FFFFFFFFFFFFFFFFFFFFFFFFFFFFFFFFE9
:10979000FFFFFFFFFFFFFFFFFFFFFFFFE71CC638D4
:1097A000FFFFFFFFFFFFFFFFFFFFFFFFFFFFFFFFC9
:1097B000FFFFFFFFFFFFFFFFFFFFFFFFFFFFFFFFB9
:1097C000FFFFFFFFFFFFFFFFFFFFFFFFFFFFFFFFA9
:1097D000FFFFFFFFFFFFFFFFFFFFFFFFFFFFFFFF99
:1097E000FFFFB5B6FFFFFFFFFFFFFFFFFFFFFFFF1C
:1097F000FFFFFFFFFFFFFFFFFFFFFFFFFFFFFFFF79
:10980000FFFFFFFFFFFFFFFFFFFFFFFFFFFFFFFF68
:10981000FFFFFFFFFFFFFFFFFFFFFFFFFFFFFFFF58
:10982000FFFFFFFFFFFFB5B6FFFFFFFFFFFFFFFFDB
:10983000FFFFFFFFFFFFFFFFFFFFFFFFFFFFFFFF38
:10984000FFFFFFFFFFFFFFFFFFFFFFFFFFFFFFFF28
:10985000FFFFFFFFFFFFFFFFFFFFBDF7FFFFFFFF62
:10986000FFFFFFFFFFFFFFFFFFFFFFFFFFFFFFFF08
:10987000FFFFFFFFFFFFFFFFFFFFFFFFFFFFFFFFF8
:10988000FFFFFFFFFFFFFFFFFFFFFFFFFFFFFFFFE8
:10989000FFFFFFFFFFFFFFFFFFFFFFFFE73CC638B3
:1098A000FFFFFFFFFFFFFFFFFFFFFFFFFFFFFFFFC8
:1098B000FFFFFFFFFFFFFFFFFFFFFFFFFFFFFFFFB8
:1098C000FFFFFFFFFFFFFFFFFFFFFFFFFFFFFFFFA8
:1098D000FFFFFFFFFFFFFFFFFFFFFFFFFFFFFFFF98
:1098E000FFFFB5B6FFFFFFFFFFFFFFFFFFFFFFFF1B
:1098F000FFFFFFFFFFFFFFFFFFFFFFFFFFFFFFFF78
:10990000FFFFFFFFFFFFFFFFFFFFFFFFFFFFFFFF67
:10991000FFFFFFFFFFFFFFFFFFFFFFFFFFFFFFFF57
:10992000FFFFFFFFFFFFB5B6FFFFFFFFFFFFFFFFDA
:10993000FFFFFFFFFFFFFFFFFFFFFFFFFFFFFFFF37
:10994000FFFFFFFFFFFFFFFFFFFFFFFFFFFFFFFF27
:10995000FFFFFFFFFFFFFFFFFFFFB596F79EF79E9C
:10996000F79EF79EF79EF79EF79EF79EF79EF79E4F
:10997000F79EF79EF79EF79EF79EF79EF79EF79E3F
:10998000F79EF79EF79EF79EF79EF79EF79EF79E2F
:10999000F79EF79EF79EF79EF79EF79ED6BABDD725
:1099A000F79EF79EF79EF79EF79EF79EF79EF79E0F
:1099B000F79EF79EF79EF79EF79EF79EF79EF79EFF
:1099C000F79EF79EF79EF79EF79EF79EF79EF79EEF
:1099D000F79EF79EF79EF79EF79EF79EF79EF79EDF
:1099E000EF7DAD55F79EF79EF79EF79EF79EF79E8B
:1099F000F79EF79EF79EF79EF79EF79EF79EF79EBF
:109A0000F79EF79EF79EF79EF79EF79EF79EF79EAE
:109A1000F79EF79EF79EF79EF79EF79EF79EF79E9E
:109A2000F79EF79EF79EAD55F79EF79EF79EF79E21
:109A3000F79EF79EF79EF79EF79EF79EF79EF79E7E
:109A4000F79EF79EF79EF79EF79EF79EF79EF79E6E
:109A5000F79EF79EF79EF79EF79E8C51BDF7BDF7D8
:109A6000BDF7BDF7BDF7BDF7BDF7BDF7BDF7BDF756
:109A7000BDF7BDF7BDF7BDF7BDF7BDF7BDF7BDF746
:109A8000BDF7BDF7BDF7BDF7BDF7BDF7BDF7BDF736
:109A9000BDF7BDF7BDF7BDF7BDF7BDF7AD5594B246
:109AA000BDF7BDF7BDF7BDF7BDF7BDF7BDF7BDF716
:109AB000BDF7BDF7BDF7BDF7BDF7BDF7BDF7BDF706
:109AC000BDF7BDF7BDF7BDF7BDF7BDF7BDF7BDF7F6
:109AD000BDF7BDF7BDF7BDF7BDF7BDF7BDF7BDF7E6
:109AE000BDD78C51BDF7BDF7BDF7BDF7BDF7BDF7CD
:109AF000BDF7BDF7BDF7BDF7BDF7BDF7BDF7BDF7C6
:109B0000BDF7BDF7BDF7BDF7BDF7BDF7BDF7BDF7B5
:109B1000BDF7BDF7BDF7BDF7BDF7BDF7BDF7BDF7A5
:109B2000BDF7BDF7BDF78C51BDF7BDF7BDF7BDF76C
:109B3000BDF7BDF7BDF7BDF7BDF7BDF7BDF7BDF785
:109B4000BDF7BDF7BDF7BDF7BDF7BDF7BDF7BDF775
:109B5000BDF7BDF7BDF7BDF7BDF7BDF7FFFFFFFFD1
:109B6000FFFFFFFFFFFFFFFFFFFFFFFFFFFFFFFF05
:109B7000FFFFFFFFFFFFFFFFFFFFFFFFFFFFFFFFF5
:109B8000FFFFFFFFFFFFFFFFFFFFFFFFFFFFFFFFE5
:109B9000FFFFFFFFFFFFFFFFFFFFFFFFEF5DC63887
:109BA000FFFFFFFFFFFFFFFFFFFFFFFFFFFFFFFFC5
:109BB000FFFFFFFFFFFFFFFFFFFFFFFFFFFFFFFFB5
:109BC000FFFFFFFFFFFFFFFFFFFFFFFFFFFFFFFFA5
:109BD000FFFFFFFFFFFFFFFFFFFFFFFFFFFFFFFF95
:109BE000FFFFBDD7FFFFFFFFFFFFFFFFFFFFFFFFEF
:109BF000FFFFFFFFFFFFFFFFFFFFFFFFFFFFFFFF75
:109C0000FFFFFFFFFFFFFFFFFFFFFFFFFFFFFFFF64
:109C1000FFFFFFFFFFFFFFFFFFFFFFFFFFFFFFFF54
:109C2000FFFFFFFFFFFFBDD7FFFFFFFFFFFFFFFFAE
:109C3000FFFFFFFFFFFFFFFFFFFFFFFFFFFFFFFF34
:109C4000FFFFFFFFFFFFFFFFFFFFFFFFFFFFFFFF24
:109C5000FFFFFFFFFFFFFFFFFFFFBDD7FFFFFFFF7E
:109C6000FFFFFFFFFFFFFFFFFFFFFFFFFFFFFFFF04
:109C7000FFFFFFFFFFFFFFFFFFFFFFFFFFFFFFFFF4
:109C8000FFFFFFFFFFFFFFFFFFFFFFFFFFFFFFFFE4
