:020000040800F2
:10000000580700201D060008F1030008F30300084C
:10001000F7030008FB030008FF03000800000000CE
:1000200000000000000000000000000003040008C1
:100030000504000800000000070400080904000887
:10004000370600083706000837060008370600089C
:10005000370600083706000837060008370600088C
:10006000370600083706000837060008370600087C
:10007000370600083706000837060008370600086C
:10008000370600083706000837060008370600085C
:10009000370600083706000837060008370600084C
:1000A000370600083706000837060008370600083C
:1000B000370600083706000837060008370600082C
:1000C000370600083706000837060008370600081C
:1000D000370600086F2700083706000837060008B3
:1000E00037060008370600083706000837060008FC
:1000F00037060008370600083706000837060008EC
:1001000037060008370600083706000837060008DB
:1001100037060008370600083706000837060008CB
:1001200037060008370600083706000837060008BB
:1001300037060008370600083706000837060008AB
:10014000370600083706000837060008370600089B
:10015000370600083706000837060008370600088B
:10016000370600083706000837060008370600087B
:10017000370600083706000837060008370600086B
:10018000370600083706000800F002F800F03CF8D7
:100190000AA090E8000C82448344AAF10107DA45E2
:1001A00001D100F031F8AFF2090EBAE80F0013F0F8
:1001B000010F18BFFB1A43F00103184790D7000046
:1001C000B0D70000103A24BF78C878C1FAD85207D7
:1001D00024BF30C830C144BF04680C6070470000C1
:1001E0000023002400250026103A28BF78C1FBD840
:1001F000520728BF30C148BF0B6070471FB503F0DE
:100200000BFA1FBD10B510BD03F0D3F91146FFF76F
:10021000F5FF00F009F803F0F1F903B4FFF7F2FF7E
:1002200003BC02F041FA00000EB5002500244FF493
:10023000A06000F013FAA82002F0B4F903F04CF922
:10024000642002F011FA40F2DC514FF0804001F0DE
:10025000C8FB0A2002F008FA40F2DC514FF080405F
:1002600001F0BFFB02F0D0FB4FF6FF707F231A4670
:1002700000210090084602F0EFFC002010214FF60C
:10028000FF724FF47843CDE90021029051A2322150
:10029000202002F063FF002010214FF6FF724FF480
:1002A0007843CDE9002102904BA23221302002F0A8
:1002B00055FF002010214FF6FF724FF47843CDE92F
:1002C0000021029045A23221402002F047FF002089
:1002D00010214FF6FF724FF47843CDE900210290D0
:1002E0003FA23221502002F039FF0DE04FF4784058
:1002F0007F23224664210090204602F0E0FC322059
:1003000002F0B2F9601CC4B2802CEFDB0020102197
:100310004FF6FF724FF47843CDE9002102902FA2EF
:100320003221202002F01AFF002010214FF6FF7228
:100330004FF47843CDE90021029029A232213020E8
:1003400002F00CFF002010214FF6FF724FF47843AB
:10035000CDE90021029023A23221402002F0FEFECE
:10036000002010214FF6FF724FF47843CDE90021B1
:1003700002901DA23221502002F0F0FE4FF4FA70DC
:1003800002F072F9194880231A46012100900846AC
:1003900003F06CF81CE0002003F0EFF84FF47A70E3
:1003A00002F062F95A2003F0E8F84FF47A7002F094
:1003B0005BF9B42003F0E1F84FF47A7002F054F9DD
:1003C0005A2003F0DAF84FF47A7002F04DF96D1C00
:1003D000E1E70000D5FD0000D4DA0000C6F400001B
:1003E000B6AF0000B3C90000B9A60000223600086D
:1003F000704700BFFEE700BFFEE700BFFEE700BF9B
:10040000FEE7704770477047704700000CB500204A
:10041000019000907648006840F48030744908608C
:1004200000BF7348006800F4003000900198401C41
:100430000190009818B90198B0F5A04FF1D16C481F
:10044000006800F4003010B10120009001E00020AD
:1004500000900098012846D165484030006840F07F
:1004600080506349403108606248006840F4404071
:10047000604908605E48083000685D4908310860DE
:100480000846006840F4004008600846006840F4F0
:10049000A05008605848091F0860081F006840F015
:1004A0008070091F086000BF5148006800F00070AC
:1004B0000028F9D040F20570504908604C480830D7
:1004C000006820F003004A490831086008460068C7
:1004D00040F00200086000BF45480830006800F0A6
:1004E0000C000828F8D10CBD10B54548006840F450
:1004F0007000434908603E48006840F001003C49F4
:10050000086000203A4908310860394800683D49D0
:100510000840374908603C48091D0860081F00680A
:1005200020F48020091F0860002031490C31086048
:10053000FFF76CFF4FF0006031498039086010BD53
:1005400070B500200022022300240221284D083526
:100550002D6805F00C0020B1042806D0082834D1FD
:1005600007E02A4D2A4E356033E02A4D284E35608B
:100570002FE01F4D2D1D2D68C5F380541C4D2D1DE2
:100580002D6805F03F0154B1224DB5FBF1F5184E31
:10059000361D3668C6F3881605FB06F209E01B4DCA
:1005A000B5FBF1F5124E361D3668C6F3881605FB0D
:1005B00006F20F4D2D1D2D68C5F301456D1C6B0016
:1005C000B2FBF3F5124E356003E0104D104E35606E
:1005D00000BF00BF064D08352D68C5F303150E4E4C
:1005E000705D0B4D2D68C540094E356070BD000033
:1005F000003802400070004008544007003C0240B0
:1006000088ED00E0FFFFF6FE103000240024F40027
:100610000000002000127A000400002009488047F2
:1006200009480047FEE7FEE7FEE7FEE7FEE7FEE7D4
:10063000FEE7FEE7FEE7FEE704480549054A064BEC
:1006400070470000E90400088901000858010020F3
:100650005807002058030020580300203249014366
:10066000324A1160704770B5002100230F22C47810
:100670001CB32E4C246804F4E064C4F5E064C4F3B5
:100680000721C1F10404E3B20A4144789C40E1B27D
:100690008478144021430C07210E254C05786155C0
:1006A000047804F01F050124AC4005786D11AD00FD
:1006B00005F1E025C5F8004109E0047804F01F05C4
:1006C0000124AC401B4D0678761145F8264070BDDC
:1006D000194A0A400243154B1B1F1A60704739B173
:1006E000124A121D12680243104B1B1D1A6006E0CD
:1006F0000E4A121D126882430C4B1B1D1A60704774
:10070000042808D14FF0E021096941F004014FF0BD
:10071000E022116107E04FF0E021096921F00401B6
:100720004FF0E022116170470000FA050CED00E087
:1007300000E400E080E100E080FFFF1F10B5044608
:100740009848844208D10121084600F086FB002128
:10075000012000F082FB76E09348844208D1012119
:10076000022000F07AFB0021022000F076FB6AE014
:100770008E48844208D10121042000F06EFB002144
:10078000042000F06AFB5EE08948844208D1012120
:10079000082000F062FB0021082000F05EFB52E020
:1007A0008448844208D10121102000F056FB00212A
:1007B000102000F052FB46E07F48844208D101211E
:1007C000202000F04AFB0021202000F046FB3AE008
:1007D0007A48844208D10121402000F03EFB0021EC
:1007E000402000F03AFB2EE07548844208D10121F8
:1007F000802000F032FB0021802000F02EFB22E060
:100800007048844208D10121801500F026FB0021A8
:10081000A01500F022FB16E06B48844208D10121AC
:10082000401500F01AFB0021601500F016FB0AE0ED
:100830006648844207D10121001500F00EFB00211B
:10084000201500F00AFB10BDF0B50A460021002378
:10085000002400BF3DE0012505FA01F3156805EA13
:1008600003049C4234D105684F000326BE40B543C3
:10087000056015794E00B540066835430560157969
:10088000012D02D01579022D16D185684F0003265F
:10089000BE40B543856055794E00B5408668354306
:1008A0008560456801268E40B54345604568967968
:1008B0008E40B6B235434560C5684F000326BE4042
:1008C000B543C560D5794E00B540C6683543C560AF
:1008D000491C1029BFD3F0BD4FF6FF710160002104
:1008E000017141718171C171704708B54FF4803257
:1008F0000092009A0A430092009AC261C161009A74
:10090000C261C2690092C269009208BD024600201D
:1009100013690B400BB1012000E000207047014635
:10092000086980B270470246002053690B400BB142
:10093000012000E0002070470146486980B27047FE
:1009400001837047418370470AB1018300E041830E
:1009500070474161704742694A4042617047F0B553
:10096000002300244D07ED0E02FA05F3CE1000F12E
:10097000200555F826504E07F70E0F26BE40B5430A
:10098000CF1000F1200646F82750CE1000F12005C8
:1009900055F8265045EA0304CE1000F1200545F82D
:1009A0002640F0BD00000240000402400008024062
:1009B000000C0240001002400014024000180240E7
:1009C000001C024000200240002402400028024097
:1009D000F948006840F00100F74908600020F64936
:1009E00008310860F4480068F4490840F24908609A
:1009F000F348091D0860F348EF4984310860F04866
:100A00001038091D0860EC48006820F48020EA498D
:100A100008600020E8490C310860E7498C31086023
:100A200070470021E44A921C11701146087070470B
:100A300010B501460022002300204A11012A02D1EC
:100A4000DD4C236808E0022A03D1DB4C70342368B4
:100A500002E0D94C7434236801F01F020124944051
:100A60001C400CB1012000E0002010BD38B5002072
:100A700000900024002500BF3120FFF7D9FF054674
:100A80000098401C00900098B0F5A04F01D0002DB8
:100A9000F2D03120FFF7CCFF08B1012400E00024A0
:100AA000204638BD01460020C34A106820F0F800F7
:100AB00040EAC10010607047C349086070470021D8
:100AC000BD4A703211701170012802D004280AD179
:100AD00004E00121B84A7032117005E00521B64AE0
:100AE0007032117000E000BF00BF7047B749086066
:100AF000704770B5049C41EA82150126C6EB530687
:100B000045EA0645054345EA0465AB4E361D3560AA
:100B100070BDAD4908667047820142EA0172A64B7A
:100B200084331A607047A8498866704710B58301FE
:100B300043EA016343EA02739F4C8834236010BD8B
:100B4000A14908677047A049C86470470246002061
:100B5000994B0833186820F0EC6042EA010318430F
:100B6000954B08331860704702460020924B0833BB
:100B7000186820F0784042EA010318438E4B08338E
:100B800018607047014600208B4A0832106820F038
:100B9000030008431060704787480830006800F081
:100BA0000C00704701460020834A0832106820F08C
:100BB000F000084310607047014600207E4A08326A
:100BC000106820F4E0500843106070470146002090
:100BD000794A0832106820F4604040EAC100106091
:100BE0007047F0B5002100220024022500260223D0
:100BF000714F08373F6807F00C0121B1042905D077
:100C0000082937D105E0724F076036E0714F076061
:100C100033E0694F3F1D3F68C7F38056664F3F1D65
:100C20003F6807F03F036EB16A4FB7FBF3F7DFF899
:100C300088C10CF1040CDCF800C0CCF3881C07FB65
:100C40000CF40CE0624FB7FBF3F7DFF86CC10CF16A
:100C5000040CDCF800C0CCF3881C07FB0CF4564FE6
:100C60003F1D3F68C7F301477F1C7D00B4FBF5F7CC
:100C7000076002E0564F076000BF00BF4E4F0837C5
:100C80003F6807F0F0010909534F7A5C0768D740C5
:100C90004760494F08373F6807F4E051890A4E4FD3
:100CA0007A5C4768D7408760434F08373F6807F44E
:100CB0006041490B484F7A5C4768D740C760F0BD38
:100CC000002100F44072B2F5407F0AD13A4A08325E
:100CD000116821F4F811414A02401143364A0832A2
:100CE0001160354A70321268C0F30B031A43324B5D
:100CF00070331A607047354944390860704733498A
:100D00004039086070473649086070470146002046
:100D1000294A8C32106820F01F004A1E1043264AD0
:100D20008C321060704701460020234A8C321068D4
:100D300020F4F8504A1E40EA02201F4A8C3210600C
:100D40007047014600201C4A8C32106820F4401085
:100D500008431060704701460020174A8C32106823
:100D600020F4400008431060704701460020124AFA
:100D70008C32106820F440300843106070471949E5
:100D80000860704739B10C4A3032126802430A4B8E
:100D900030331A6006E0084A303212688243064B4C
:100DA00030331A607047F9B1034A34321268024393
:100DB000014B34331A601CE000380240FFFFF6EAB2
:100DC000103000240030002000004742800E4742CF
:100DD0000024F40000127A0014000020FFFCFF0F32
:100DE0005C014742E01147428F4A126882438E4BB2
:100DF0001A60704739B18C4A121D126802438A4B3F
:100E00001B1D1A6006E0884A121D12688243864B39
:100E10001B1D1A60704739B1834A0C3212680243B5
:100E2000814B0C331A6006E07F4A0C321268824311
:100E30007D4B0C331A60704739B17B4A103212680F
:100E40000243794B10331A6006E0774A1032126879
:100E50008243754B10331A60704739B1724A243A95
:100E600012680243704B243B1A6006E06E4A243A33
:100E7000126882436C4B243B1A60704739B16A4A4E
:100E8000203A12680243684B203B1A6006E0664A2B
:100E9000203A12688243644B203B1A60704739B194
:100EA000614A1C3A126802435F4B1C3B1A6006E021
:100EB0005D4A1C3A126882435B4B1C3B1A607047C8
:100EC00039B1594A143A12680243574B143B1A601D
:100ED00006E0554A143A12688243534B143B1A6099
:100EE000704739B1504A103A126802434E4B103BDA
:100EF0001A6006E04C4A103A126882434A4B103B93
:100F00001A60704739B1484A1C3212680243464B96
:100F10001C331A6006E0444A1C3212688243424B7A
:100F20001C331A60704739B13F4A203212680243BD
:100F30003D4B20331A6006E03B4A20321268824360
:100F4000394B20331A60704739B1374A243212685E
:100F50000243354B24331A6006E0334A24321268C8
:100F60008243314B24331A60704739B12E4A2C32F8
:100F7000126802432C4B2C331A6006E02A4A2C32AA
:100F800012688243284B2C331A60704739B1264AC5
:100F9000303212680243244B30331A6006E0224A92
:100FA000303212688243204B30331A607047012878
:100FB00008D11D493C31096841F008011A4A3C3208
:100FC000116007E018493C31096821F00801164A10
:100FD0003C321160704739B1134A273A1278024304
:100FE000114B273B1A7006E00F4A273A12788243CA
:100FF0000D4B273B1A7070470B484030006840F09B
:101000008070094940310860704701460020064A57
:10101000283A12680A400AB1012000E00020704717
:1010200001492639087070473438024010B504462B
:10103000FB48844208D101218014FFF752FF0021B0
:10104000A014FFF74EFF3CE0F648844208D101218E
:101050000014FFF735FF00212014FFF731FF30E0C7
:10106000F148844208D10121C013FFF729FF002174
:10107000E013FFF725FF24E0EC48844208D101216A
:101080004014FFF72EFF00216014FFF72AFF18E03D
:10109000E748844209D101210805FFF722FF00211A
:1010A0004FF48010FFF71DFF0BE0E248844208D1A7
:1010B00001214805FFF715FF00214FF40010FFF74D
:1010C00010FF10BD10B50022028802F441520B88B7
:1010D0004C8823438C882343CC8823430C892343A7
:1010E0004C8923438C892343CC8923431A430280B0
:1010F000838B4FF2FF74234083830B8A038210BDDE
:101100002DE9F04F0025022300244FF001090022B1
:101110000026002794469046B0F81CA04FF2400BE2
:101120000AEA0B0AA0F81CA04FF0020AA0F820A0BF
:10113000858BD1F808A0BAF1020F01D100BF82E07F
:10114000B1F804A0BAF1000F02D14FF0010901E09B
:101150004FF00209DFF8E0A2DAF800A00AF4000A72
:10116000BAF1000F09D0DFF8D0A2DAF800A02AF413
:10117000000ADFF8C4B2CBF800A0DFF8BCA20AF185
:101180007C0ADAF800A0CAF3881CDFF8ACA20AF1E6
:101190007C0ADAF800A0CAF30278DFF89CA2AAF170
:1011A000040ADAF800A00AF03F07DFF88CA2AAF1DF
:1011B000040ADAF800A00AF4800ABAF5800F08D110
:1011C000DFF878A2BAFBF7FA0AFB0CFABAFBF8F6DA
:1011D00007E0DFF86CA2BAFBF7FA0AFB0CFABAFBDD
:1011E000F8F6B1F806A0BAF5007F0ED14FEA162A3C
:1011F0000AEB8A0A4FEA4A0AD1F808B0BAFBFBFAAE
:101200000AF1050A1FFA8AF20FE04FEA491AB6FB03
:10121000FAFA0AEB8A0A4FEA4A0AD1F808B0BAFB8E
:10122000FBFA0AF1050A1FFA8AF24FF00A0AB2FB2A
:10123000FAF202F00104A2EB040ACAF34F034FF6DC
:10124000FF7A0AEA0424022B01DBFF2B01DD0223D3
:101250000024B1F806A04AEA040A4AEA030AA0F800
:1012600020A0B1F804A0B1F80CB04AEA0B0AB1F81A
:1012700002B04AEA0B0AB1F800B04AEA0B0A4AF493
:10128000006A4AEA05058583BDE8F08F00210180E8
:1012900041808180C180018141818181C18107219B
:1012A000018270470021018041808180C18002213C
:1012B000816000218181704721B1028842F04002A3
:1012C000028004E002884FF6BF731A400280704724
:1012D00021B1828B42F48062828304E0828B4FF6DC
:1012E000FF331A408283704702884FF2FF731A401F
:1012F000028002880A4302807047B1F5804F04D112
:10130000028842F48042028004E002884BF6FF73B8
:101310001A40028070474FF6FF62914204D0028863
:1013200042F48072028004E002884FF6FF631A40A4
:101330000280704721B1828842F00402828004E07A
:1013400082884FF6FB731A408280704721B18288F1
:1013500042F01002828004E082884FF6EF731A4058
:101360008280704730B500220023848B4FF2400505
:101370002C40848302240484828B0C88B4F5007F83
:1013800001D00C8814B94FF4807308E00C88B4F5D0
:10139000407F03D00C88B4F5807F00D100238C8877
:1013A0008D892C434D882C431C4344F40064224314
:1013B000828330BD0146888970478181704721B1A1
:1013C000028842F40052028004E002884DF6FF7366
:1013D0001A4002807047018841F4805101807047B3
:1013E00002460020012901D0108B00E0908A70474E
:1013F0000146088A70471AB183880B43838002E054
:1014000083888B438380704730B5002400230C1100
:101410000125A540ABB2AAB185881D43858014E0A3
:101420000030014000380040003C004000340140E2
:1014300000500140005401400838024000127A0078
:101440000024F40085889D43858030BD024600203D
:1014500013890B400BB1012000E000207047CA4304
:1014600002817047F0B502460020002400230025C9
:1014700001F00F070126BE40B4B20B1101269E40B9
:10148000B3B2968806EA03051689264016B10DB157
:10149000012000E00020F0BD10B5002201F00F0493
:1014A0000123A3409AB2D343038110BD10B5044673
:1014B000FE48844208D101210846FFF712FD0021B1
:1014C0000120FFF70EFD9DE0B4F1804F08D101210E
:1014D0000846FFF7F5FC00210120FFF7F1FC91E041
:1014E000F348844208D101210220FFF7E9FC0021E2
:1014F0000220FFF7E5FC85E0EE48844208D1012197
:101500000420FFF7DDFC00210420FFF7D9FC79E07F
:10151000E948844208D101210820FFF7D1FC0021CD
:101520000820FFF7CDFC6DE0E448844208D101219A
:101530001020FFF7C5FC00211020FFF7C1FC61E07F
:10154000DF48844208D101212020FFF7B9FC0021A7
:101550002020FFF7B5FC55E0DA48844208D101218C
:101560000220FFF7BEFC00210220FFF7BAFC49E091
:10157000D548844209D101210804FFF7B2FC0021BB
:101580004FF48030FFF7ADFC3CE0D048844209D1F5
:1015900001214804FFF7A5FC00214FF40030FFF7BC
:1015A000A0FC2FE0CA48844209D101218804FFF73A
:1015B00098FC00214FF48020FFF793FC22E0C548FF
:1015C000844208D101214020FFF77AFC002140200D
:1015D000FFF776FC16E0C048844208D10121802044
:1015E000FFF76EFC00218020FFF76AFC0AE0BB4891
:1015F000844207D101218015FFF762FC0021A0156C
:10160000FFF75EFC10BD00220288A84B98420ED066
:10161000AC4B98420BD0B0F1804F08D0A44B98420D
:1016200005D0A44B984202D0A34B984204D14FF668
:101630008F731A404B881A43A04B984207D0A04B97
:10164000984204D04FF6FF431A400B891A43028098
:101650004B68C3620B880385944B984202D0994B28
:10166000984201D18B7A03860123838270474FF021
:10167000FF3141600021018001814180817270470A
:101680000185828270470A46002101884FF68F73D8
:10169000194011430180704741627047C162704731
:1016A0000146486A70470146088D704721B102889B
:1016B00042F00202028004E002884FF6FD731A40F5
:1016C0000280704721B1028842F00402028004E0E7
:1016D00002884FF6FB731A400280704721B10288DE
:1016E00042F08002028004E002884FF67F731A40C5
:1016F0000280704702884FF6F7731A400280028812
:101700000A430280704702884FF6FF431A40028066
:1017100002880A430280704721B1028842F0010228
:10172000028004E002884FF6FE731A400280704780
:1017300070B5002400220023058C4FF6FE7635405C
:101740000584028C8388048B4FF68F752C40B51E60
:101750002C400D882C43751E2A408D892A434D88C4
:101760002A43524DA84202D0564DA84213D14FF6FB
:10177000F7752A40CD892A434FF6FB752A408D889C
:101780002A434FF6FF652B404FF6FF552B400D8A3D
:101790002B434D8A2B43838004838D6845630284E9
:1017A00070BD70B5002400220023058C4FF6EF7643
:1017B00035400584028C8388048B48F6FF752C40E5
:1017C0004FF6FF452C400D884FF6FF7606EA0525BB
:1017D0002C434FF6DF752A408D8906EA05152A430A
:1017E0004D8806EA05152A43304DA84202D0354DF2
:1017F000A8421DD14FF67F752A40CD894FF6FF765E
:1018000006EA05152A434FF6BF752A408D8806EA79
:1018100005152A434FF6FF352B404FF2FF752B403D
:101820000D8A06EA85052B434D8A06EA85052B437A
:10183000838004838D688563028470BD70B5002445
:1018400000220023058C4FF6FF6635400584028C8C
:101850008388848B4FF68F752C404FF6FC752C4097
:101860000D882C434FF6FF552A408D894FF6FF76A1
:1018700006EA05252A434D8806EA05252A430B4D2D
:10188000A84202D00F4DA84238D14FF2FF752A402E
:10189000CD894FF6FF7606EA05252A434FF6FF3538
:1018A0002A408D8806EA05252A4319E000000140F8
:1018B0000004004000080040000C00400010004000
:1018C0000014004000040140004001400044014079
:1018D0000048014000180040001C0040002000406B
:1018E0004EF6FF752B404DF6FF752B400D8A06EA2C
:1018F00005152B434D8A06EA05152B438380848307
:101900008D68C563028470BD70B500220023002479
:10191000058C4EF6FF7635400584038C8488828BD7
:1019200048F6FF752A404FF6FF452A400D884FF6CE
:10193000FF7606EA05252A434DF6FF752B408D8973
:1019400006EA05352B434D8806EA05352B43FE4D47
:10195000A84202D0FD4DA84208D14BF6FF752C409D
:101960000D8A4FF6FF7606EA85152C438480828324
:101970008D680564038470BD0021018041808180F1
:1019800081608181C18101824182704770B50346C7
:10199000002000241846183001258D40ACB21D8C63
:1019A000A5431D8409B108290AD100EB610005682F
:1019B0004FF68F76354005600568154305600FE0EA
:1019C0000D1FC5F34E052844056848F6FF763540DF
:1019D000056005684FF6FF7606EA02263543056086
:1019E00070BD4163704781637047C1637047016494
:1019F00070470A460021018B4FF68F73194011433F
:101A0000018370470A460021018B48F6FF73194095
:101A10004FF6FF7303EA02231943018370470A4616
:101A20000021818B4FF68F731940114381837047DA
:101A30000A460021818B48F6FF7319404FF6FF7369
:101A400003EA02231943818370470A460021018B70
:101A50004FF6F77319401143018370470A4600217E
:101A6000018B4FF2FF7319404FF6FF7303EA022315
:101A70001943018370470A460021818B4FF6F773A3
:101A800019401143818370470A460021818B4FF230
:101A9000FF7319404FF6FF7303EA02231943818352
:101AA00070470A460021018B4FF6FB731940114322
:101AB000018370470A460021018B4FF6FF3319401E
:101AC0004FF6FF7303EA02231943018370470A4666
:101AD0000021818B4FF6FB731940114381837047BE
:101AE0000A460021818B4FF6FF3319404FF6FF73F2
:101AF00003EA02231943818370470A460021018BC0
:101B00004FF67F7319401143018370470A46002145
:101B1000018BC1F30E014FF6FF7303EA0223194351
:101B2000018370470A460021818B4FF67F7319406D
:101B30001143818370470A460021818BC1F30E0156
:101B40004FF6FF7303EA02231943818370470A4665
:101B50000021018C4FF6FD73194011430184704739
:101B60000A460021018C4FF6F77319401143018496
:101B700070470A460021018C4FF6DF7319404FF67B
:101B8000FF7303EA02131943018470470A460021D8
:101B9000018C4FF67F7319404FF6FF7303EA02136F
:101BA0001943018470470A460021018C4FF6FF5308
:101BB00019404FF6FF7303EA02231943018470476B
:101BC0000A460021018C4FF2FF7319404FF6FF7354
:101BD00003EA02231943018470470A460021018C5D
:101BE0004DF6FF7319404FF6FF7303EA02331943B2
:101BF0000184704730B5002301248C40A3B2048CCB
:101C00009C430484048C02FA01F5ADB22C43048495
:101C100030BD30B5002304248C40A3B2048C9C4317
:101C20000484048C02FA01F5ADB22C43048430BD67
:101C3000828B4FF2FF331A408283828B4FF6FF7301
:101C400003EA01231A4382837047F0B50C46154618
:101C5000002100220026078C4EF6FF7C07EA0C07C5
:101C60000784818B028C4FF6FF7707EA043640F633
:101C7000FF4739404FF6FF7707EA052739434FF60C
:101C8000FF7707EA0337394345F6FF773A4046F4D2
:101C900080573A4381830284F0BD828B4FF6F37301
:101CA0001A408283828B0A4382837047F0B50C46C8
:101CB0001546002100220026078C4FF6FF6C07EA2C
:101CC0000C070784818B028C4FF6FF7707EA042606
:101CD0004FF60C7739404FF6FF7707EA03172F438B
:101CE00039434FF2FF573A4046F480773A438183B5
:101CF0000284F0BD028B4FF2FF331A400283028B45
:101D00004FF6FF7303EA01231A4302837047F0B5CD
:101D10000C461546002100220026078C4FF6EF7C6A
:101D200007EA0C070784018B028C4FF6FF7707EA5E
:101D3000041640F6FF4739404FF6FF7707EA0337AE
:101D400039434FF6FF7703E00000014000040140F3
:101D500007EA052739434FF65F773A4046F0100708
:101D60003A4301830284F0BD028B4FF6F3731A40AD
:101D70000283028B0A4302837047F0B50C46154676
:101D800000210022068C4FF6FE773E400684018B30
:101D9000028C4FF60C7631407E1C06EA03162E4369
:101DA00031434FF6F576324044F001063243018369
:101DB0000284F0BD70B505460C46208850B92389D1
:101DC000A28861882846FFF7D8FFE1882846FFF7F8
:101DD000CBFF25E0208804280AD12389A2886188C6
:101DE0002846FFF794FFE1882846FFF783FF17E0B6
:101DF000208808280AD12389A28861882846FFF70D
:101E000055FFE1882846FFF748FF09E02389A288AB
:101E100061882846FFF719FFE1882846FFF708FF89
:101E200070BD002101804180012181800021C1809D
:101E3000018170472DE9F04105460C460026012737
:101E4000608808B9022600E00026A088012801D198
:101E5000022700E001272088A0B92389A288618891
:101E60002846FFF78AFFE1882846FFF77DFF238990
:101E70003A4631462846FFF74AFFE1882846FFF7F1
:101E800039FF13E02389A28861882846FFF73FFFC6
:101E9000E1882846FFF72EFF23893A463146284637
:101EA000FFF76BFFE1882846FFF75EFFBDE8F08192
:101EB0000146486B70470146886B70470146C86B06
:101EC00070470146086C70470A884B881A438B8814
:101ED0001A43CB881A430B891A434B891A438B89BF
:101EE0001A43A0F84420704700210180418081807E
:101EF000C180018141818181704731B1B0F84420B6
:101F000042F40042A0F8442005E0B0F84420C2F3B7
:101F10000E02A0F84420704721B1828842F00402EA
:101F2000828004E082884FF6FB731A4082807047FB
:101F300021B1828842F00102828004E082884FF65B
:101F4000FE731A40828070471AB183890B438381E4
:101F500002E083898B438381704781827047024608
:101F60000020138A0B400BB1012000E000207047D5
:101F7000CA430282704730B5024600200023002485
:101F8000158A05EA0103958905EA010413B10CB12C
:101F9000012000E0002030BDCA430282704741EAC0
:101FA0000203A0F8483070471AB183890B4383813C
:101FB00002E083898B438381704721B1828842F09C
:101FC0000802828004E082884FF6F7731A4082800C
:101FD000704701894FF6F8721140018170470A4637
:101FE000002101894FF68F73194011430181704719
:101FF00030B504460D4629462046FFF7F0FF2089FC
:1020000040F00700208130BD2DE9F04104460D4627
:1020100016461F46602D06D13B460122314620461A
:10202000FFF775FE05E03B46012231462046FFF7EB
:10203000A4FE29462046FFF7D2FF208940F0070082
:102040002081BDE8F08130B50C4600210189C9B27C
:102050004FF6FF7505EA0325154325432943018102
:1020600030BD2DE9F04105460E461746984600243E
:1020700043463A4631462846FFF7E5FF2C894FF69E
:10208000F870044044F007044FF68F70044044F0A9
:1020900070042C81BDE8F081F0B504460D4616466B
:1020A0001F463B46324629462046FFF7CCFF208993
:1020B00040F480402081F0BD82884FF68F731A4033
:1020C000828082880A438280704702894FF6F873C3
:1020D0001A40028102890A430281704702894FF641
:1020E0007F731A40028102890A4302817047F0B56A
:1020F0000C4615461E460021002200230189028B52
:10210000038C4FF6F877394021434FF6FC473A40AD
:1021100040F201173A434FF6DD773B404FF6FF7729
:1021200007EA06172F433B43018102830384F0BD76
:1021300021B1828842F08002828004E082884FF6DA
:102140007F731A4082807047A0F8501070470000DB
:1021500010B50446FA48844208D101211020FEF748
:10216000C0FE00211020FEF7BCFE57E0F548844277
:1021700009D101214804FEF7A3FE00214FF40030ED
:10218000FEF79EFE4AE0F048844209D1012188040E
:10219000FEF796FE00214FF48020FEF791FE3DE011
:1021A000EA48844209D10121C804FEF789FE0021D2
:1021B0004FF40020FEF784FE30E0E548844209D168
:1021C00001210805FEF77CFE00214FF48010FEF788
:1021D00077FE23E0DF48844208D101212020FEF76A
:1021E00080FE00212020FEF77CFE17E0DA488442C2
:1021F00009D101218807FEF763FE00214FF08040DE
:10220000FEF75EFE0AE0D548844207D10121400571
:10221000FEF756FE00216005FEF752FE10BD2DE9C7
:10222000FF4705460E460024A14600BFA046B089E0
:1022300000B100BF2C8A24F44054F08804432C825F
:10224000AC8941F20C608443B088318908437189BC
:1022500008430443AC81AC8A24F44074B08904433D
:10226000AC826846FEF7BDFCB548854202D0B9484D
:10227000854202D1DDF80C9001E0DDF80890A889D4
:1022800000F4004040B109EBC90000EB09103168CF
:102290004900B0FBF1F707E009EBC90000EB0910BA
:1022A00031688900B0FBF1F76420B7FBF0F004015E
:1022B0002009642101FB1078A88900F4004040B196
:1022C000322000EBC800B0FBF1F000F0070004433F
:1022D00008E0322000EB08106421B0FBF1F000F0C0
:1022E0000F0004432C81BDE8FF874FF416510160B5
:1022F00000218180C18001810C21418100218181E7
:10230000704710B502460020108A20F470600B88D8
:102310004C8823438C882343CC8823431843108262
:1023200010BD0021018041808180C180704721B1B2
:10233000828942F40052828104E082894DF6FF7363
:102340001A4082817047028B02F47F420283028B23
:102350000A430283704721B1828942F4004282819C
:1023600003E08289C2F30E028281704721B1828A22
:1023700042F40062828204E0828A4FF2FF731A40C4
:1023800082827047C1F308028280704701468888C4
:10239000C0F308007047028A4FF6F0731A400282B9
:1023A000028A0A430282704721B1828942F0020206
:1023B000828104E082894FF6FD731A408281704762
:1023C00082894FF2FF731A40828182890A43828197
:1023D0007047028A4FF6DF731A400282028A0A436C
:1023E0000282704721B1028A42F48042028204E0F4
:1023F000028A4BF6FF731A4002827047818941F0CE
:1024000001018181704721B1828A42F008028282F3
:1024100004E0828A4FF6F7731A4082827047028B7B
:10242000D2B20283028B42EA01220283704721B1B9
:10243000828A42F02002828204E0828A4FF6DF73B1
:102440001A408282704721B1828A42F01002828251
:1024500004E0828A4FF6EF731A4082827047828AC4
:102460004FF6FB731A408282828A0A438282704747
:1024700021B1828A42F00202828204E0828A4FF60F
:10248000FD731A40828270471AB1838A0B4383829C
:1024900002E0838A8B4383827047F0B503460024B1
:1024A00000260025002040F66A17B94200D100BF7F
:1024B0001846C1F3421401F01F06012707FA06F57A
:1024C000012C01D10C3004E0022C01D1103000E0CD
:1024D00014301AB107682F43076002E00768AF4362
:1024E0000760F0BD02460020B1F5007F00D100BFBB
:1024F00013880B400BB1012000E00020704701F46D
:102500000072B2F5007F00D100BFCA43028070475D
:1025100070B50246002400230025002040F66A160C
:10252000B14200D100BFC1F3421501F01F030126E3
:1025300006FA03F3012D13D19689334017E000000A
:10254000001001400044004000480040004C0040A2
:10255000005000400014014000780040007C004022
:10256000022D02D1168A334001E0968A33400C12C4
:10257000012606FA04F41688344013B10CB1012088
:1025800000E0002070BD10B50022002340F66A1460
:10259000A14200D100BF0A1201249440A3B2DC433F
:1025A000048010BD10B504466FF00400FEF7A8F8D3
:1025B000E11704EB5171C1F3C701394A117010469C
:1025C000007800EB4001C1EBC0104FF6FF7101EA4B
:1025D000C0003449088010BD0146314A12784A4390
:1025E0004FF0E0235A6100229A611A46126942F0C4
:1025F00001021A6100BF4FF0E022106900F00102F1
:102600001AB100F48032002AF5D04FF0E0221269AE
:1026100022F001024FF0E0231A6100229A61704714
:102620000146204A12884A434FF0E0235A610022B3
:102630009A611A46126942F001021A6100BF4FF016
:10264000E022106900F001021AB100F48032002A81
:10265000F5D04FF0E022126922F001024FF0E023A2
:102660001A6100229A61704770B504464FF40770F2
:1026700094FBF0F0C6B24FF4077094FBF0F100FB4E
:10268000114085B205E04FF40770FFF7C9FF701ED7
:10269000C6B2002EF7D115B12846FFF7C1FF70BDB5
:1026A000240000202600002000BF704700BF4E4AD3
:1026B000128802F04002002AF9D0C2B24A4B9A8036
:1026C000704710B588B0044601210846FEF75AFB52
:1026D00001211020FEF7B0FB072209214348FEF735
:1026E0003EF907220A214148FEF739F94FF4C0604C
:1026F000069002208DF81C008DF81D0000208DF83A
:102700001E0001208DF81F0006A93848FEF79CF82E
:1027100002940020ADF80C00ADF80E00ADF81000EA
:10272000ADF814000C20ADF8120002A92E48FFF7F6
:1027300076FD01212C48FFF7FAFD40212A48FFF7DA
:10274000DEFE012240F225512748FFF7A6FE252094
:102750008DF8040003208DF805008DF80600012097
:102760008DF8070001A8FDF77EFF08B010BD10B579
:1027700040F225511C48FFF7CBFE10B31A48FFF773
:1027800005FEC4B21A48008800F40040C8B91848D1
:10279000008800F4804060B10A2C03D00020144966
:1027A000088020E01248008840F40040104908806A
:1027B00019E00D2C06D10E48008840F480400C49E9
:1027C000088010E00A480088C0F30D0009490C5445
:1027D00007480088401C0649088008460088C7282A
:1027E00001DD0020088010BD001001400000024003
:1027F0002C0000203000002000B587B00121072008
:10280000FEF7C0FA0121C803FEF705FB1A20059068
:1028100001208DF8180000208DF81A0003208DF893
:10282000190001208DF81B0005A9FE48FEF70CF8E1
:102830000221FC48FEF784F80821FA48FEF780F8E8
:102840001021F848FEF77CF84FF400700590012045
:102850008DF8180000208DF81A0003208DF819005B
:1028600001208DF81B0005A9EF48FDF7EDFF4FF49F
:102870000071ED48FEF764F84FF4E0500590022037
:102880008DF8180000208DF81A0003208DF819002B
:1028900001208DF81B0005A9E448FDF7D5FF0622AD
:1028A0000A21E248FEF75BF806220B21DF48FEF71B
:1028B00056F806220C21DD48FEF751F80020ADF84D
:1028C00000004FF48270ADF802000020ADF8040063
:1028D000ADF80600ADF808004FF40070ADF80A003E
:1028E0000820ADF80C000020ADF80E000720ADF870
:1028F00010006946CE48FEF7E5FB0121CC48FEF703
:10290000DBFC07B000BD70B50546002405E0601C87
:1029100084B2C82C01DD002070BD0221C448FEF73E
:1029200095FD0028F3D02946C148FEF746FD002456
:1029300005E0601C84B2C82C01DD0020ECE7012119
:10294000BB48FEF783FD0028F3D0B948FEF732FDFF
:10295000C0B2E1E710B504461021B248FDF7F2FF1E
:102960000821B048FDF7ECFF2046FFF7CCFF10210F
:10297000AC48FDF7E5FF10BD10B504461021A9488D
:10298000FDF7E0FF0821A748FDF7DAFF2012FFF767
:10299000BAFFE0B2FFF7B7FF1021A248FDF7D0FF62
:1029A00010BD10B5044610219E48FDF7CBFF08214D
:1029B0009C48FDF7C7FF2046FFF7A5FF1021994867
:1029C000FDF7BEFF10BD2DE9F04104460D46164649
:1029D0001F462A20FFF7E5FFA11C88B2FFF7CCFFB6
:1029E000B11C88B2FFF7C8FF2B20FFF7DAFFE91C04
:1029F00088B2FFF7C1FFF91C88B2FFF7BDFF2C209A
:102A0000FFF7CFFFBDE8F08110B5FFF7F5FE02211B
:102A10008448FDF797FF6420FFF726FE02218148D6
:102A2000FDF78EFF6420FFF71FFE4FF400717E4814
:102A3000FDF786FF6420FFF717FE1120FFF7B1FFB7
:102A40007820FFF711FEB120FFF7ABFF0520FFF75D
:102A500081FF3C20FFF77EFF3C20FFF77BFFB22089
:102A6000FFF79FFF0520FFF775FF3C20FFF772FF80
:102A70003C20FFF76FFFB320FFF793FF0520FFF720
:102A800069FF3C20FFF766FF3C20FFF763FF05204E
:102A9000FFF760FF3C20FFF75DFF3C20FFF75AFF88
:102AA000B420FFF77EFF0320FFF754FF3A20FFF723
:102AB00078FF0520FFF74EFFC020FFF772FFA2202E
:102AC000FFF748FF0220FFF745FF8420FFF742FF92
:102AD000C120FFF766FFC520FFF73CFFC220FFF7CC
:102AE00060FF0D20FFF736FF0020FFF733FFC32004
:102AF000FFF757FF8D20FFF72DFF2A20FFF72AFF52
:102B0000C420FFF74EFF8D20FFF724FFEE20FFF7D4
:102B100021FFC520FFF745FF0A20FFF71BFF3620E6
:102B2000FFF73FFFC820FFF715FFE020FFF739FF51
:102B30001220FFF70FFF1C20FFF70CFF1020FFF7FC
:102B400009FF1820FFF706FF3320FFF703FF2C20B3
:102B5000FFF700FF2520FFF7FDFE2820FFF7FAFE14
:102B60002820FFF7F7FE2720FFF7F4FE2F20FFF7BE
:102B7000F1FE3C20FFF7EEFE0020FFF7EBFE032006
:102B8000FFF7E8FE0320FFF7E5FE1020FFF7E2FE67
:102B9000E120FFF706FF1220FFF7DCFE1C20FFF705
:102BA000D9FE1020FFF7D6FE1820FFF7D3FE2D2008
:102BB000FFF7D0FE2820FFF7CDFE2320FFF7CAFE47
:102BC0002820FFF7C7FE2820FFF7C4FE2620FFF7C6
:102BD000C1FE2F20FFF7BEFE3B20FFF7BBFE00200B
:102BE000FFF7B8FE0320FFF7B5FE0320FFF7B2FEA4
:102BF0001020FFF7AFFE2020FFF7D3FE1320FFF7D2
:102C0000D0FE2A20FFF7CDFE0020FFF7A3FE002014
:102C1000FFF7A0FE0020FFF79DFE7F20FFF79AFE42
:102C20002B2007E0000002400004024000080240A0
:102C3000003C0040FFF7B5FE0020FFF78BFE0020B0
:102C4000FFF788FE0020FFF785FE7F20FFF782FE5A
:102C50002920FFF7A6FE10BD2DE9F04706460F46D6
:102C600014461D46DDF820A0681E83B2601E82B2A5
:102C700039463046FFF7A7FEB8460EE0B14606E0FB
:102C80005046FFF779FE09F101001FFA80F9A145CE
:102C9000F6DB08F101001FFA80F8A845EEDBBDE87D
:102CA000F08770B504460D4616462B462246294647
:102CB0002046FFF788FE3046FFF75EFE70BD2DE927
:102CC000FF4F85B081468A460020039083460798CF
:102CD000A0EB09040898A0EB0A06CDF80890CDF8FF
:102CE00004A0002C01DD012705E00CB9002702E05B
:102CF0004FF0FF376442002E02DD4FF0010806E07E
:102D000016B94FF0000802E04FF0FF386642B442B7
:102D100001DD254600E03546002004901EE0019AC2
:102D200091B2029A90B2129AFFF7BBFF0398204427
:102D30000390B3440398A84205DD0398401B039019
:102D4000029838440290AB4504DDABEB050B0198CB
:102D5000404401900498401C80B20490691C04987F
:102D60008842DCDB09B0BDE8F08F2DE9F843054669
:102D70000E4617469846089C33463A463146284642
:102D80000094FFF79CFF43462A46314628460094AC
:102D9000FFF795FF43463A46414628460094FFF721
:102DA0008EFF43463A46314638460094FFF787FF88
:102DB000BDE8F8832DE9F04706460F469046994650
:102DC0000025444641E07A1B91B2321B90B24A463C
:102DD000FFF767FF7A1B91B2321990B24A46FFF7AC
:102DE00060FF3A1991B2721B90B24A46FFF759FF41
:102DF0003A1B91B2721B90B24A46FFF752FF7A1902
:102E000091B2321990B24A46FFF74BFF3A1B91B28A
:102E1000721990B24A46FFF744FF3A1991B27219FB
:102E200090B24A46FFF73DFF7A1991B2321B90B239
:102E30004A46FFF736FF6D1C05FB05F004FB040155
:102E400008FB08F0814200DD641EA542BBDDBDE841
:102E5000F0872DE9FE4F0646894692469B460D9C1B
:102E600000962046E11704EB5171C910614389B205
:102E7000019105200290002565E005EB8510F949D8
:102E800011F810009AF80010884259D105EB85100E
:102E9000F44901EB400040789AF8011088424FD184
:102EA00009EB0400401E83B23019401E82B249462D
:102EB0003046FFF788FD00273FE04FF0000836E07E
:102EC0000E9898B905EB8510E64901EB4000801C8F
:102ED000C05D012101FA08F1084018B15846FFF71A
:102EE0004BFD20E00C98FFF747FD1CE005EB85103B
:102EF000DC4901EB4000801CC05D012101FA08F1B2
:102F0000084020B15A4649463046FFF7CAFE701CB9
:102F100086B20098301AA04205D1009E09F1010046
:102F20001FFA80F906E008F1010000F0FF08B8F18F
:102F3000080FC5DB00BF781CC7B201988742BCDB15
:102F400000BF681C85B20298854296DBBDE8FE8F03
:102F50002DE9FE4F0646894692469B460D9C0096FB
:102F60002046E11704EB5171C910614389B2019108
:102F70000520029000256DE005EB850000EB451073
:102F8000B94911F810009AF8001088425FD105EB9A
:102F9000850000EB4510B44901EB400040789AF8F9
:102FA0000110884253D109EB0400401E83B230194E
:102FB000401E82B249463046FFF705FD002743E038
:102FC0004FF000083AE00E98A8B905EB850000EB39
:102FD0004510A54901EB4000801CC05D012101FAAC
:102FE00008F1084018B15846FFF7C6FC22E00C98DB
:102FF000FFF7C2FC1EE005EB850000EB45109A4987
:1030000001EB4000801CC05D012101FA08F108407D
:1030100020B15A4649463046FFF743FE701C86B23F
:103020000098301AA04205D1009E09F101001FFA54
:1030300080F906E008F1010000F0FF08B8F1080F80
:10304000C1DB00BF781CC7B201988742B8DB00BF64
:10305000681C85B2029885428EDBBDE8FE8F2DE9A3
:10306000FE4F0646894692469B460D9C009620469A
:10307000E11704EB5171C910614389B201910B2032
:103080000290002565E005EB0510784911F8100065
:103090009AF80010884259D105EB0510734901EBED
:1030A000400040789AF8011088424FD109EB0400A3
:1030B000401E83B23019401E82B249463046FFF7A7
:1030C00082FC00273FE04FF0000836E00E9898B9E8
:1030D00005EB0510654901EB4000801CC05D012136
:1030E00001FA08F1084018B15846FFF745FC20E006
:1030F0000C98FFF741FC1CE005EB05105B4901EB68
:103100004000801CC05D012101FA08F1084020B197
:103110005A4649463046FFF7C4FD701C86B20098F7
:10312000301AA04205D1009E09F101001FFA80F972
:1031300006E008F1010000F0FF08B8F1080FC5DB58
:1031400000BF781CC7B201988742BCDB00BF681C77
:1031500085B20298854296DBBDE8FE8F2DE9FE4FD1
:103160008046894615469A46DDE90D470C9E2AE0C1
:10317000102C09D153462A4649464046CDE901471D
:103180000096FFF76CFF19E0182C09D153462A4628
:1031900049464046CDE901470096FFF7D9FE0DE0CC
:1031A000202C09D153462A4649464046CDE90147DD
:1031B0000096FFF74EFE01E0BDE8FE8FAD1C08EB68
:1031C00004001FFA80F828780028D1D100BFF3E767
:1031D0002DE9FF4F83B005468A461746119CAB4642
:1031E000204604EBD071C1F347063046F11706EBD9
:1031F0005171C910614389B20191A7F12000C7B292
:103200000AEB0400401E83B2A819401E82B2514648
:103210002846FFF7D8FB4FF0000954E0102C06D1E8
:10322000134800EB071010F8090002900BE0202C67
:1032300006D1104800EB871010F80900029002E058
:1032400007B0BDE8F08F4FF0000834E01298B8B92D
:10325000012000FA08F00299084068B10698FFF7CB
:103260008BFB24E0C2D6000850D50008DAD3000852
:103270002AB600081ABC00081098FFF77DFB16E07C
:10328000012000FA08F00299084020B15146284672
:10329000069AFFF706FD681C85B2A5EB0B00B0424D
:1032A00005D15D460AF101001FFA80FA06E008F137
:1032B000010000F0FF08B8F1080FC7DB00BF09F1FB
:1032C00001001FFA80F901988145A7DB00BFB7E72D
:1032D0002DE9FE4F06460F4614469846DDE90D5A85
:1032E000DDF8309010E0CDE9015ACDF80090227859
:1032F000434639463046FFF76BFF284605EBD07151
:1033000006EB61018EB2641C20780028EBD1BDE889
:10331000FE8F10B50246012000E050430B1EA1F1C4
:103320000104E1B2F9D110BD2DE9FF4F85B0074688
:1033300091461D46DDE913A600200490304606EBB9
:10334000D071C1F3470B002434E0281B401EC1B2EA
:103350000A20FFF7DEFFB9FBF0F00A21B0FBF1F223
:1033600001FB12080498A0B9681EA04211DDB8F153
:10337000000F0CD1002004FB0B71CDE900A60290D8
:1033800088B22022129B0699FFF722FF10E001204D
:103390000490002008F13001CAB204FB0B71CDE9A2
:1033A00000A6029088B2129B0699FFF711FF00BF9A
:1033B000601CC4B2AC42C8DB09B0BDE8F08F2DE997
:1033C000FF4F2DED020B2DED028B83B00746B0EEC3
:1033D000408A1446DDE91486304606EBD071C1F30D
:1033E000470A9FED3C0A28EE000ABCEEC00A10EE28
:1033F000100A1FFA80FB002530E0601B401EC1B29E
:103400000A20FFF786FFBBFBF0F00A21B0FBF1F2C8
:1034100001FB1209A01EA84210D10020A11E01FB31
:103420000A71CDE90086029088B22E220A9B089983
:10343000FFF7CEFE681CC5B2601CC4B2002009F1C3
:103440003001CAB205FB0A71CDE90086029088B24C
:103450000A9B0899FFF7BCFE681CC5B2A542CCDBED
:1034600003B0BDEC028B06B0BDE8F08F2DE9F05F34
:103470000746884615461E46DDF82890002408EBCE
:103480000600401E83B27819401E82B2414638467B
:10349000FFF799FAA24619E04FF0000B10E019F877
:1034A0001400FFF757FA012101EB440119F801005C
:1034B000FFF750FA601C84B20BF101001FFA80FB89
:1034C000B345ECDB0AF101001FFA80FAAA45E3DB01
:1034D000BDE8F09F0000C84200B58BB0012108464E
:1034E000FDF799FC01210846FDF74CFC01200990ED
:1034F00002208DF8280003208DF8290000208DF887
:103500002A0001208DF82B0009A92648FDF79CF917
:10351000012200212348FDF722FA44F61F6007909C
:103520005320ADF818000020ADF82000ADF81A00C7
:1035300006A94FF08040FEF766F86020ADF8040061
:103540000120ADF8060040F2DC5003900020ADF8F9
:10355000100001A94FF08040FEF7EAF80821C806E4
:10356000FEF773FA01218807FEF7B8F801218807F2
:10357000FEF7D2F80BB000BD704770B50446B42C0E
:1035800000DDB4244FF4FA606043B42190FBF1F005
:1035900000F5FA7085B229464FF08040FEF721FA17
:1035A00070BD0000000002407047704770477047D0
:1035B0007047754600F02CF8AE4605006946534644
:1035C00020F00700854618B020B5FDF735F8BDE8B6
:1035D00020404FF000064FF000074FF000084FF07A
:1035E000000B21F00701AC46ACE8C009ACE8C0090B
:1035F000ACE8C009ACE8C0098D46704710B5044678
:10360000AFF300802046BDE81040FCF706BE000086
:1036100000487047F80000204FF04070E1EE100ABB
:103620007047101000800080011BFFFFFFFFFFFFAD
:10363000FFFFFFFFFFFFFFFFFFFFFFFFFFFFFFFF9A
:10364000FFFFFFFFFFFFFFFFFFFFFFFFFFFFFFFF8A
:10365000FFFFFFFFFFFFFFFFFFFFFFFFFFFFFFFF7A
:10366000FFFFFFFFFFFFFFFFFFFFFFFFFFFFFFFF6A
:10367000FFFFFFFFFFFFFFFFFFFFFFFFFFFFF7FF62
:10368000FFFFFFDFFFDFFFFFF7FFFFFFFFFFFFFF92
:10369000FFFFFFFFFFFFFFFFFFFFFFFFFFFFFFFF3A
:1036A000FFDFFFFFF7FEFFFFFFFFF7FFFFFFFFFF5B
:1036B000FFFFFFFFFFFFFFFFFFFFFFFFFFFFFFFF1A
:1036C000FFFFFFFFFFFFFFFFFFFFFFFFFFFFFFFF0A
:1036D000FFFFFFFFFFFFFFFFFFDFFFDFFFFFFFFF3A
:1036E000FFFFFFFFFFFFFFFFFFFFFFFFFFFFFFFFEA
:1036F000FFFFFFFFFFFFFFFFFFFFFFFFFFFFFFFFDA
:10370000FFFFFFFFFFFFFFFFFFFFFFFFFFFFFFFFC9
:10371000FFFFFFFFFFFFFFFFFFFFFFFFFFFFFFFFB9
:10372000FFFFFFFFFFFFFFFFFFFFFFFFFFFFFFFFA9
:10373000FFFFFFFFFFFFFFFFFFFFFFFFFFFFFFFF99
:10374000FFFFFFFFFFFFFFFFFFFFFFFFFFFFFFFF89
:10375000FFFFFFFFFFFFFFFFFFFFFFFFFFFFFFFF79
:10376000FFFFFFFFFFFFFFFFFFFFFFFFFFFFFFFF69
:10377000FFFFFFFFFFFFFFFFFFFFFFFFFFFFFFFF59
:10378000FFFFFFFFFFFFFFFFFFFFFFFFFFFFFFFF49
:10379000FFFFFFFFFFFFFFFFFFFFFFFFFFFFFFFF39
:1037A000FFFFFFFEFFFFFFFFFFFFFFFFF7FFF7FF3A
:1037B000FFFFFFFFFFFFFFFFFFFFFFFFFFFFFFFF19
:1037C000FFFFFFFFFFFFFFFFFFFFFFFFFFFFFFFF09
:1037D000FFFFFFFFFFFFFFFFFFFFFFFFFFFFFFFFF9
:1037E000FFFFFFDFFFFFFFFFFFFFFFFFFFFFFFFF09
:1037F000FFFFFFFFFFFFFFFFFFFFFFFFFFFFFFFFD9
:10380000FFFFFFFFFFFFFFFFFFFFFFFFFFFFFFFFC8
:10381000FFFFFFFFFFFFFFFFFFFFFFFFFFFFFFFFB8
:10382000FFFFFFFFFFFFFFFFFFFFFFFFFFFFFFFFA8
:10383000FFFFFFFFFFFFFFFFFFFFFFFFFFFFFFFF98
:10384000FFFFFFFFFFFFFFFFFFFFFFFFFFFFFFFF88
:10385000FFFFFFFFFFFFFFFFFFFFFFFFFFFFFFFF78
:10386000FFFFFFFFFFFFFFFFFFFFFFFFFFFFFFFF68
:10387000FFDFFFFFFFFFFFFFFFFFFFFFFFFFFFFF78
:10388000FFFFFFFFFFFFFFFFFFFFFFFFFFFFFFFF48
:10389000FFFFFFFFFFFFFFFFFFFFFFFFFFFFFFFF38
:1038A000F7FEFFFEFFDFFFDFFFFFFFDFFFFFFFFF92
:1038B000FFFFFFFFFFFFFFFFFFFFFFFFFFFFFFFF18
:1038C000FFFFFFFFFFFFFFFFFFFFFFFFFFFFFFFF08
:1038D000FFFFFFFFFFFFFFFFFFFFFFFFFFFFFFFFF8
:1038E000FFFFFFDFFFDFFFFFFFFFFFFFFFFFFFFF28
:1038F000FFFFFFFFFFFFFFFFFFFFFFFFFFFFFFFFD8
:10390000FFFFFFFFFFFFFFFFFFFFFFFFFFFFFFFFC7
:10391000FFFFFFFFFFFFFFFFFFFFFFFFFFFFFFFFB7
:10392000FFFFFFFFFFFFFFFFFFFFFFFFFFFFFFFFA7
:10393000FFFFFFFFFFFFFFFFFFFFFFFFFFFFFFFF97
:10394000FFFFFFFFFFFFFFFFFFFFFFFFFFFFFFFF87
:10395000FFFFFFFFFFFFFFFFFFFFFFFFFFFFFFFF77
:10396000FFFFFFFFFFFFFFFFFFFFFFFFFFFFF7FF6F
:10397000FFFFFFFFFFFFFFFFFFFFFFFFFFFFFFFF57
:10398000FFFFFFFFFFFFFFFFFFFEFFFFFFFFFFFF48
:10399000FFFFFFFFFFFFFFFFFFFFFFFFFFDFFFFF57
:1039A000F7FFF7FFFFDFFFFFFFFFFFFFFFFFFFFF57
:1039B000FFFFFFFFFFFFFFFFFFFFFFFFFFFFFFFF17
:1039C000FFFFFFFFFFFFFFFFFFFFFFFFFFFFFFFF07
:1039D000FFFFFFFFFFFEFFFFFFFFFFFFFFFFFFFFF8
:1039E000FFFFFFFFFFFFFFFFFFFFFFFFFFFFFFFFE7
:1039F000FFFFFFFFFFFFFFFFFFFFFFFFFFFFFFFFD7
:103A0000FFFFFFFFFFFFFFFFFFFFFFFFFFFFFFFFC6
:103A1000FFFFFFFFFFFFFFFFFFFFFFFFFFFFFFFFB6
:103A2000FFFFFFFFFFFFFFFFFFFFFFFFFFFFFFFFA6
:103A3000FFFFFFFFFFFFFFFFFFFFFFFFFFFFFFFF96
:103A4000FFFFFFFFFFFFFFFFFFFFFFFFFFFFFFFF86
:103A5000FFFFFFFFFFFFFFFFFFFFFFFFFFFFFFFF76
:103A6000FFFFFFFFFFFFFFFFFFFFFFFEFFFFF7FF6F
:103A7000F7FFF7FFEFFF9E9C7DF97DF98DF98DF93A
:103A8000EFFFF7FFFFFFFFFEFFFFFFFFFFFFFFFF5F
:103A9000FFFFFFFFFFFFFFFFFFFFFFFFFFFFFFFF36
:103AA000F7FFFFDFFFFFEFFF9E9C7DF97DF97DF9BA
:103AB0009E9CE7FFFFFFFFDEF7FFFFFFFFFFFFFF1B
:103AC000FFFFFFFFFFFFFFFFFFFFFFFFFFFFFFFF06
:103AD000FFFFFFFEF7FEF7FFEFFFB6FC8DF98DF954
:103AE0007DF98DF9D79EEFFFF7FEFFDFFFFFFFFFA8
:103AF000FFFFFFFFFFFFFFFFFFFFFFFFFFFFFFFFD6
:103B0000FFFFFFFFFFFFFFFFFFFFFFFFFFFFFFFFC5
:103B1000FFFFFFFFFFFFFFFFFFFFFFFFFFFFFFFFB5
:103B2000FFFFFFFFFFFFFFFFFFFFFFFFFFFFFFFFA5
:103B3000FFFFFFFFFFFFFFFFFFFFFFFFFFFFFFFF95
:103B4000FFFFFFFFFFFFFFFFFFFFFFFFFFFFFFFF85
:103B5000FFFFFFFFFFFFFFFFFFFFFFFFFFFFFFFF75
:103B6000FFFFFFFFFFFFFFFFFFFFFFFEFFFEF7FE70
:103B7000F7FFD79E65781417041804180BF814176C
:103B800055189E9CEFFFF7FFFFFFFFFFFFFFFFFFB2
:103B9000FFFFFFFFFFFFFFFFFFFFFFFFFFFFFFFF35
:103BA000FFFFFFFFE7FF6DB90C170C1714170BF899
:103BB0000C1744B7C77EF7FFFFFFFFFFFFFFFFFFB4
:103BC000FFFFFFFFFFFFFFFFFFFFFFFFFFFFFFFF05
:103BD000FFFFF7FEEFFFC77E65781C5814170BF840
:103BE0000C19141744B7B6FCEFFEF7FFF7FFF7DF29
:103BF000FFFFFFFFFFFFFFFFFFFFFFFFFFFFFFFFD5
:103C0000FFFFFFFFFFFFFFFFFFFFFFFFFFFFFFFFC4
:103C1000FFFFFFFFFFFFFFFFFFFFFFFFFFFFFFFFB4
:103C2000FFFFFFFFFFFFFFFFFFFFFFFFFFFFFFFFA4
:103C3000FFFFFFFFFFFFFFFFFFFFFFFFFFFFFFFF94
:103C4000FFFFFFFFFFFFFFFFFFFFFFFFFFFFFFFF84
:103C5000FFFFFFFFFFFFFFFFFFFFFFFFFFFFFFFF74
:103C6000FFFFFFFFFFFFFFFFFFFFFFFFFFDEF7FE8E
:103C7000D79E44B70C17045C047D047C045C043CB0
:103C80000C192C36A71DEFFFFFFFFFFFFFFFFFFF03
:103C9000FFFFFFFFFFFFFFFFFFFFFFFFFFFFFFFF34
:103CA000FFDFD79E44B70C17047B045C045C045B05
:103CB000047B04182C369E9CFFFFFFFFFFFFFFFFD5
:103CC000FFFFFFFFFFFFFFFFFFFFFFFFFFFFFFFF04
:103CD000FFFFF7FFC77E2C360C17043A043B045C49
:103CE000045C047C14171BF5AF3DEFFFEFFEF7FFFC
:103CF000FFFFFFFFFFFFFFFFFFFFFFFFFFFFFFFFD4
:103D0000FFFFFFFFFFFFFFFFFFFFFFFFFFFFFFFFC3
:103D1000FFFFFFFFFFFFFFFFFFFFFFFFFFFFFFFFB3
:103D2000FFFFFFFFFFFFFFFFFFFFFFFFFFFFFFFFA3
:103D3000FFFFFFFFFFFFFFFFFFFFFFFFFFFFFFFF93
:103D4000FFFFFFFFFFFFFFFFFFFFFFFFFFFFFFFF83
:103D5000FFFFFFFFFFFFFFFFFFFFFFFFFFFFFFFF73
:103D6000FFFFFFFFFFFFFFFFFFFFFFFFFFFFEFFF73
:103D700055180C17045C047C0C5C045B045B047C2D
:103D8000045B043A2C36B6FCFFFFFFFFFFFFFFFF8A
:103D9000FFFFFFFFFFFFFFFFFFFFFFFFFFFFFFFF33
:103DA000F7FF659A0418045B0C3C0C3C047B0C5C2C
:103DB000045C047C0C592C36D79EFFFFFFFFFFFFED
:103DC000FFFFFFFFFFFFFFFFFFFFFFFFFFFFFFFF03
:103DD000FFFFEFFF65780C17043A045C045C047C79
:103DE000045D047D045B0BF844B7D79EEFFFF7DE5C
:103DF000FFFFFFFFFFFFFFFFFFFFFFFFFFFFFFFFD3
:103E0000FFFFFFFFFFFFFFFFFFFFFFFFFFFFFFFFC2
:103E1000FFFFFFFFFFFFFFFFFFFFFFFFFFFFFFFFB2
:103E2000FFFFFFFFFFFFFFFFFFFFFFFFFFFFFFFFA2
:103E3000FFFFFFFFFFFFFFFFFFFFFFFFFFFFFFFF92
:103E4000FFFFFFFFFFFFFFFFFFFFFFFFFFFFFFFF82
:103E5000FFFFFFFFFFFFFFFFFFFFFFFFFFFFFFFF72
:103E6000FFFFFFFFFFFFFFFFFFFFFFFFFFFFC77E1B
:103E70001C58043A045C047C0C5B045B045B045C2B
:103E8000045B047B04187DFBFFFFFFFFFFFFFFFFC8
:103E9000FFFFFFFFFFFFFFFFFFFFFFFFFFFFFFFF32
:103EA000C77E1C58047B047B047A045B047B045C9F
:103EB000045C047C0C5B1BF59E9CF7FFFFFFFFDF9F
:103EC000FFFFFFFFFFFFFFFFFFFFFFFFFFFFFFFF02
:103ED000FFFFAF3D1417043A047B047C047C047C90
:103EE000047C045C045C045B0C179E9CF7FEF7FEEC
:103EF000FFFFFFFFFFFFFFFFFFFFFFFFFFFFFFFFD2
:103F0000FFFFFFFFFFFFFFFFFFFFFFFFFFFFFFFFC1
:103F1000FFFFFFFFFFFFFFFFFFFFFFFFFFFFFFFFB1
:103F2000FFFFFFFFFFFFFFFFFFFFFFFFFFFFFFFFA1
:103F3000FFFFFFFFFFFFFFFFFFFFFFFFFFFFFFFF91
:103F4000FFFFFFFFFFFFFFFFFFFFFFFFFFFFFFFF81
:103F5000FFFFFFFFFFFFFFFFFFFFFFFFFFFFFFFF71
:103F6000FFFFFFFFFFFFFFFFFFFFFFFFFFFF8DF9D9
:103F700014170C5B047C047C045B045B045B047C12
:103F8000045B047B0419659AF7FFFFFFFFFFFFFF47
:103F9000FFFFFFFFFFFFFFFFFFFFFFFEFFFFFFFF32
:103FA0009E9C0C17047C047C045B047B047B045CF7
:103FB000045C047B045B0C176DB9EFFFFFDFFFDFD0
:103FC000FFFFFFFFFFFFFFFFFFFFFFFFFFFFFFFF01
:103FD000FFFF9E9C0BF8045B045C045C047C045CA7
:103FE000045C045C045C045C04186578F7FFFFFE65
:103FF000FFFFFFFFFFFFFFFFFFFFFFFFFFFFFFFFD1
:10400000FFFFFFFFFFFFFFFFFFFFFFFFFFFFFFFFC0
:10401000FFFFFFFFFFFFFFFFFFFFFFFFFFFFFFFFB0
:10402000FFFFFFFFFFFFFFFFFFFFFFFFFFFFFFFFA0
:10403000FFFFFFFFFFFFFFFFFFFFFFFFFFFFFFFF90
:10404000FFFFFFFFFFFFFFFFFFFFFFFFFFFFFFFF80
:10405000FFFFFFFFFFFFFFFFFFFFFFFFFFFFFFFF70
:10406000FFFFFFFFFFFFFFFFFFFFFFFFFFFF657881
:104070000BF8045B047C045C045B045B045B047C61
:10408000047B047B043A44B7EFFFFFFFFFFFFFFF11
:10409000FFFFFFFFFFFFFFFFFFFFFFDEFFDEFFDF92
:1040A00065780BF8045C045C045C045B047B045CD2
:1040B000045B047B047C0BF844B7E7FFFFFFFFBF02
:1040C000FFDFFFFFFFFFFFFFFFFFFFFFFFFFFFFF20
:1040D000F7FF65780C59045C045C045C045C047CA8
:1040E000045C045C045C045C0419659AEFFFFFFF48
:1040F000FFFFFFFFFFFFFFFFFFFFFFFFFFFFFFFFD0
:10410000FFFFFFFFFFFFFFFFFFFFFFFFFFFFFFFFBF
:10411000FFFFFFFFFFFFFFFFFFFFFFFFFFFFFFFFAF
:10412000FFFFFFFFFFFFFFFFFFFFFFFFFFFFFFFF9F
:10413000FFFFFFFFFFFFFFFFFFFFFFFFFFFFFFFF8F
:10414000FFFFFFFFFFFFFFFFFFFFFFFFFFFFFFFF7F
:10415000FFFFFFFFFFFFFFFFFFFFFFFFFFFFFFFF6F
:10416000FFFFFFFFFFFFFFFFFFFFFFFFF7FF657888
:104170000BF8045B047B045C045B045C045B047C60
:10418000047C045B043A44B7EFFFFFFFFFFFFFFF2F
:10419000FFFFFFFFFFFFFFFFFFFFFFFEFFDEF7FF59
:1041A00065780C19045C045D045C045C045B047CAD
:1041B000047B047B047C041B44B7E7FFFFFFFFBFC5
:1041C000FFDFFFFFFFFFFFFFFFFFFFFFFFFFFFFF1F
:1041D000EFFF5518043A045C045C045C045C045C66
:1041E000045C045C045C045C043A4519E7FFFFFFCF
:1041F000FFFFFFFFFFFFFFFFFFFFFFFFFFFFFFFFCF
:10420000FFFFFFFFFFFFFFFFFFFFFFFFFFFFFFFFBE
:10421000FFFFFFFFFFFFFFFFFFFFFFFFFFFFFFFFAE
:10422000FFFFFFFFFFFFFFFFFFFFFFFFFFFFFFFF9E
:10423000FFFFFFFFFFFFFFFFFFFFFFFFFFFFFFFF8E
:10424000FFFFFFFFFFFFFFFFFFFFFFFFFFFFFFFF7E
:10425000FFFFFFFFFFFFFFFFFFFFFFFFFFFFFFFF6E
:10426000FFFFFFFFFFFFFFFFFFFFFFFFF7FF657887
:104270000BF8043B047B047C045C045C045C045C7D
:10428000047B045B043A4519EFDFFFFFFFFFFFFFEC
:10429000FFFFFFFFFFFFFFFFFFFFFFFFFFFFF7FF36
:1042A00055180BF8045C045C045C045C047C047C1E
:1042B000047B047B045C041B4519E7FFFFFFFFDF61
:1042C000FFDFFFFFFFFFFFFFFFFFFFFFFFFFFFFF1E
:1042D000EFFF55180419045C045C045C045C045C86
:1042E000045C045C045C045C043B4519E7FFFFFFCD
:1042F000FFFFFFFFFFFFFFFFFFFFFFFFFFFFFFFFCE
:10430000FFFFFFFFFFFFFFFFFFFFFFFFFFFFFFFFBD
:10431000FFFFFFFFFFFFFFFFFFFFFFFFFFFFFFFFAD
:10432000FFFFFFFFFFFFFFFFFFFFFFFFFFFFFFFF9D
:10433000FFFFFFFFFFFFFFFFFFFFFFFFFFFFFFFF8D
:10434000FFFFFFFFFFFFFFFFFFFFFFFFFFFFFFFF7D
:10435000FFFFFFFFFFFFFFFFFFFFFFFFFFFFFFFF6D
:10436000FFFFFFFFFFFFFFFFFFFFFFFFF7FF657886
:104370000C19045B047B045C045C045C045C045C5A
:10438000045B047C043A44B7EFFFFFFFFFFFFFFF2D
:10439000FFFFFFFFFFFFFFFFFFFFFFDFFFFFEFFF5D
:1043A00055180C19047B045C045C045C047C047CDC
:1043B000047B047B045C043B4519E7FFFFFFFFDF40
:1043C000FFFFFFFFFFFFFFFFFFFFFFFFFFFFFFFFFD
:1043D000EFFF5518043A045C045C045C045C045C64
:1043E000045C045C045C045C041A4519E7FFFFFFED
:1043F000FFFFFFFFFFFFFFFFFFFFFFFFFFFFFFFFCD
:10440000FFFFFFFFFFFFFFFFFFFFFFFFFFFFFFFFBC
:10441000FFFFFFFFFFFFFFFFFFFFFFFFFFFFFFFFAC
:10442000FFFFFFFFFFFFFFFFFFFFFFFFFFFFFFFF9C
:10443000FFFFFFFFFFFFFFFFFFFFFFFFFFFFFFFF8C
:10444000FFFFFFFFFFFFFFFFFFFFFFFFFFFFFFFF7C
:10445000FFFFFFFFFFFFFFFFFFFFFFFFFFFFFFFF6C
:10446000FFFFFFFFFFFFFFFFFFFFFFFFF7FF657885
:104470000C19045B045B047C045C045C045B045C5A
:10448000047B047C043B4519EFFFFFFFFFFFFFFFA8
:10449000FFFFFFFFFFFFFFFFFFFFFFFFFFFEEFDF5D
:1044A00055180C19047B045C045C045B047C047CDC
:1044B000045B047B045C043B4519EFFFFFFFFFDF57
:1044C000FFFFFFFFFFFFFFFFFFFFFFFFFFFFFFFFFC
:1044D000EFFF5518043A045C045C045C045C045C63
:1044E000045C045C045C045C041A4519E7FFFFFFEC
:1044F000FFFFFFFFFFFFFFFFFFFFFFFFFFFFFFFFCC
:10450000FFFFFFFFFFFFFFFFFFFFFFFFFFFFFFFFBB
:10451000FFFFFFFFFFFFFFFFFFFFFFFFFFFFFFFFAB
:10452000FFFFFFFFFFFFFFFFFFFFFFFFFFFFFFFF9B
:10453000FFFFFFFFFFFFFFFFFFFFFFFFFFFFFFFF8B
:10454000FFFFFFFFFFFFFFFFFFFFFFFFFFFFFFFF7B
:10455000FFFFFFFFFFFFFFFFFFFFFFFFFFFFFFFF6B
:10456000FFFFFFFFFFFFFFFFFFFFFFFFF7FF657884
:104570000BF8045B045B047C047C045C045B045C5B
:10458000047B047C043A4519EFFFFFFFFFFFFFFFA8
:10459000FFFFFFFFFFFFFFFFFFFFFFFFF7FEEFFF44
:1045A00055180C19045B047C045C045B047C047CDB
:1045B000045B047B045C043B4519EFFFFFFFFFDF56
:1045C000FFFFFFFFFFFFFFFFFFFFFFFFFFFFFFFFFB
:1045D000EFFF55180419045C045C045C045C045B84
:1045E000045B045C045C045C043A4519EFFFFFFFC4
:1045F000FFFFFFFFFFFFFFFFFFFFFFFFFFFFFFFFCB
:10460000FFFFFFFFFFFFFFFFFFFFFFFFFFFFFFFFBA
:10461000FFFFFFFFFFFFFFFFFFFFFFFFFFFFFFFFAA
:10462000FFFFFFFFFFFFFFFFFFFFFFFFFFFFFFFF9A
:10463000FFFFFFFFFFFFFFFFFFFFFFFFFFFFFFFF8A
:10464000FFFFFFFFFFFFFFFFFFFFFFFFFFFFFFFF7A
:10465000FFFFFFFFFFBFFFDFF7FFFFFFFFFFF7FFDA
:10466000F7FFF7FFF7FFF7FFEFFFEFFFE7FF659AB1
:104670000C170C5A047B045C047C045C0C5B047B0C
:10468000047B047B045B4519EFDFFFFFFFFFF7FFAF
:10469000F7FFF7FFF7FFF7FFF7FFF7FFF7FFE7FF7A
:1046A00055180418047C045C045C045C047C045C01
:1046B000045C045C045B043B3D7BEFFFF7FFF7FF0A
:1046C000F7FFF7FFF7FFF7FFF7FFF7FFF7FFF7FF3A
:1046D000EFFF65DB0419045C045B045C045C045CB0
:1046E000045C045C045C047C041A557BEFFFFFFF50
:1046F000F7FFEFFFF7FFF7FFF7FFF7FFF7FFF7FF12
:10470000F7FFFFFFFFFFFFFFFFFFFFFFFFFFFFFFC1
:10471000FFFFFFFFFFFFFFFFFFFFFFFFFFFFFFFFA9
:10472000FFFFFFFFFFFFFFFFFFFFFFFFFFFFFFFF99
:10473000FFFFFFFFFFFFFFFFFFFFFFFFFFFFFFFF89
:10474000FFFFFFFFFFFFFFFFFFFFFFFFFFFFFFFF79
:10475000FFFFFFDEFFDEF7FFD79EAF3D9E9C8E3B47
:104760006DB97DF97DF97DF97DF97DF96E1C34B85F
:104770000C59045B047C045C045C047C045B045CF6
:10478000045C045B045C2CFA9E9C8E3B8E3B7DF9A2
:104790007DF97DF97DF97DF97DF97DF97DFB8EBD92
:1047A0002CFA043A047D045C045C045C045C045C44
:1047B000045C045C045C045B1CFB8EBD8E3B7DF9D9
:1047C0007DF97DF97DF97DF97DF97DF97DFB7DFB35
:1047D0008EBD3D3A045B049B047B045C045C045C7A
:1047E000045C045C045C047C043B34B89E9C8DF93E
:1047F0007DF97DF97DF97DF97DF96DB97DF9A71D0B
:10480000D79EFFFFFFDEF7DFF7FFFFFFFFFFFFFF92
:10481000FFFFFFFFFFFFFFFFFFFFFFFFFFFFFFFFA8
:10482000FFFFFFFFFFFFFFFFFFFFFFFFFFFFFFFF98
:10483000FFFFFFFFFFFFFFFFFFFFFFFFFFFFFFFF88
:10484000FFFFFFFFFFFFFFFFFFFFFFFFFFFFFFFF78
:10485000FFFFFFDFEFFFB6FC44B714171C58141717
:104860000BF80BF8041804180C1714170BF80C5954
:10487000045B045C047C045C045C047C045B045CFA
:104880000C5C0C3B045D047C0C1704180418041821
:1048900004180418041804180C390C170C170C59B8
:1048A000047A045C045D045C045C045C045C045CE9
:1048B000045C045C045C045C045B0C590C390BF86C
:1048C0000C1904180418041804180C390BF80C17E8
:1048D0000C170C5A049C047C047B045C045C045C90
:1048E000045C045C045C045C045C043A1C5814170B
:1048F0000C190BF80BF80BF80C170BF80C191C58CB
:104900002C368E3BE7FFF7FFF7FEFFFFF7FFF7FFC1
:10491000FFFFFFFFFFFFFFFFFFFFFFFFFFFFFFFFA7
:10492000FFFFFFFFFFFFFFFFFFFFFFFFFFFFFFFF97
:10493000FFFFFFFFFFFFFFFFFFFFFFFFFFFFFFFF87
:10494000FFFFFFFFFFFFFFFFFFFFFFFFFFFEFFFF78
:10495000FFFFEFFF8E3B2C3614170C5B043B045C0F
:10496000045B045B045B045B045B0C5C045B045C45
:10497000045C045C045C045C045B047B047C045CF9
:10498000045B0C3B045D047D045B045C045C045C20
:10499000045C045C045C045C045C045C047B047ADA
:1049A000045B0C3D0C3D045C045B045C045C045C37
:1049B000045C045C045C045C045C045C045C0C3C0F
:1049C0000C3C045C045C045C045C045B045C045B01
:1049D0000C5B045B047C047B047B045C045C045C73
:1049E000045C045C045C045C047C047B047A045C6A
:1049F000047D047B045B045C045C0C3B0C5B0C5B83
:104A0000043A1C5844B7D79EFFFFFFFFFFFFF7FF94
:104A1000FFFFFFFFFFDFFFFFFFFFFFFFFFFFFFFFC6
:104A2000FFFFFFFFFFFFFFFFFFFFFFFFFFFFFFFF96
:104A3000FFFFFFFFFFFFFFFFFFFFFFFFFFFFFFFF86
:104A4000FFFFFFFFFFFFFFFFFFFFFFFFFFDEFFDEB8
:104A5000EFFF8E3B1417041B045B045B045C045CD7
:104A6000045C045C045C045C045C045C045C045C46
:104A7000045C045B045B045C045C045B047C047CF9
:104A8000045B0C5B045C045D045C045B047C047CE0
:104A9000047C047C045C047C045C045C045C045CB6
:104AA000045C045C045C045B047B045C045C045CE8
:104AB000045C045C045C045C045C047C045C045BD7
:104AC000045C047C047C047C045B045C0C5C045C7F
:104AD000047B047C045C045C045B045C047C045C78
:104AE000045C045C045C045C045B047B047B047C69
:104AF000047D047B045B047C047C045C0C5B0C5B29
:104B0000045C047D141744B7D79EFFFFFFDEFFFE51
:104B1000F7FFFFFFFFFFFFFFF7FFFFFFFFFFFFFFB5
:104B2000FFFFFFFFFFFFFFFFFFFFFFFFFFFFFFFF95
:104B3000FFFFFFFFFFFFFFFFFFFFFFFFFFFFFFFF85
:104B4000FFFFFFFFFFFFFFFFFFFFF7FFFFBFFFFFBD
:104B5000AF3D1BF5041B045C049B045B045B045B1E
:104B6000045B045B045B045B045B045C045C045B4B
:104B70000C5B0C5B045B045C045C045C047C047CE8
:104B8000047B047B045B045C045C047C045C045CC8
:104B9000045C045C045C045C045C045C045C047BF6
:104BA000047B045B045B047B047B045B045C045CAB
:104BB000045C045C045C045C047C047B047B045B98
:104BC000047B047B047B047B045B045B0C5C045C63
:104BD000047C047C045C045C047C045C045C047C55
:104BE000045C045C045C045C045B045B045B047CA8
:104BF000047C045B0C5B0C5B047B047C047B045B2B
:104C0000047C045C145C14177DF9EFDFFFDEFFDE2B
:104C1000FFFFFFFFFFFFFFFFFFFFFFFFFFFFFFFFA4
:104C2000FFFFFFFFFFFFFFFFFFFFFFFFFFFFFFFF94
:104C3000FFFFFFFFFFFFFFFFFFFFFFFFFFFFFFFF84
:104C4000FFFFFFFFFFFFFFFFFFFFF7DEFFBFEFFFED
:104C5000659A0418045C045C047C047C045C045CB9
:104C6000045C045C045B045B045B045B045B045B4A
:104C7000045B045B045C045C045B047B047B045CF9
:104C8000045C045C045B045B045B045C045C045C27
:104C9000045B045B045B047C047C047B045C045CB8
:104CA000047C047B047B045C047C045B045B045C88
:104CB000045C045C045C045C045C045C045C045CF4
:104CC000045C045C045C045C045C047B045B047BA7
:104CD000047B047B045B045B047C045C045C045C78
:104CE000047C045C045C045C045C045C045C045CA4
:104CF000045B045C047C047C047C047C047C047BF6
:104D0000045B0C5B0C590C192C36C77EFFFFFFFEB1
:104D1000F7FFFFFFFFFFFFFFFFFFFFFFFFFFFFFFAB
:104D2000FFFFFFFFFFFFFFFFFFFFFFFFFFFFFFFF93
:104D3000FFFFFFFFFFFFFFFFFFFFFFFFFFFFFFFF83
:104D4000FFFFFFFFFFFFFFFFFFFFF7FEFFFED79E06
:104D50002C36043A0C3C0C5C047C047C045C045C43
:104D6000045B045B045B045B045B045B045B045B4B
:104D7000045C045C045C045C045B047B045B045B17
:104D8000045C045C045C045B045B045C045C045C25
:104D9000045B045B045C045C045C045B045C043C36
:104DA000045C045B045B043C043C045B045B045C47
:104DB000045C045C045C045C045C045C045C045CF3
:104DC000045C045C045C045C045C045C043C045C03
:104DD000045C045C0C5B043B045C045C045C045CED
:104DE000045C045C045C045C045C045C047C045BA4
:104DF000047B047C047C047C047C045B047C047CD5
:104E0000047C047B045B045B14179E9CF7FFFFFE8D
:104E1000F7FFFFFFFFFFFFFFFFFFFFFFFFFFFFFFAA
:104E2000FFFFFFFFFFFFFFFFFFFFFFFFFFFFFFFF92
:104E3000FFFFFFFFFFFFFFFFFFFFFFFFFFFFFFFF82
:104E4000FFFFFFFFFFFFFFFFFFFFFFFFFFFFC77E2B
:104E50001C58043B045C047C047C047B045B045B02
:104E6000045C045C045C045B045B045B045B045B47
:104E7000045B045B045B045B045B045B045B045B3A
:104E8000045C045B045B045B045B045B045B045B29
:104E9000045B045B045B045B045B045B045B045B1A
:104EA000045B045B045B045B045C045C045C045C06
:104EB000045C045C045C045C045C045C045C045CF2
:104EC000045C045C045C045C045C045C045C045CE2
:104ED000045C045C045C045C045C045C045C045CD2
:104EE000045C045C045C045C045C045C045B045BC4
:104EF000045B047B047B047B047B047B047B047CD9
:104F0000047B047C045B045C04186DB9FFFFFFFFA5
:104F1000FFFFFFFEFFFFFFFFFFFFFFFFFFFFFFFFA2
:104F2000FFFFFFFFFFFFFFFFFFFFFFFFFFFFFFFF91
:104F3000FFFFFFFFFFFFFFFFFFFFFFFFFFFFFFFF81
:104F4000FFFFFFFFFFFFFFFFFFFFFFFFFFFFB6FCBD
:104F50001C58043B045C047C047B047B047B045BE2
:104F6000045C045C045C045B045B045B045B045B46
:104F7000045B045B045B045B045B043B043B043B99
:104F8000043B043B043B043B043B043B043B043B29
:104F9000043B043B043B043B043B043B043B043B19
:104FA000043B043B043B043B045B045B045B045B89
:104FB000045B045B045B045B045B045B045B045BF9
:104FC000045B045B045B045B045B043B043B043B49
:104FD000043B043B043B043B043B043B045B045B99
:104FE000045B045B045B043B043B045B045B045B09
:104FF000045B045C045C045C045B047C047B047B55
:10500000047B047B045B045C041975DAFFFFFFFF7B
:10501000FFFFFFFFF7FFFFFFFFFFFFFFFFFFFFFFA8
:10502000FFFFFFFFFFFFFFFFFFFFFFFFFFFFFFFF90
:10503000FFFFFFFFFFFFFFFFFFFFFFFFFFFFFFFF80
:10504000FFFFFFFFFFFFFFFFFFFFFFFFFFDFC77E49
:105050001C58045B045C047C047B047B047B047BA1
:10506000045C045C045C045B045B045B043B045B65
:10507000045B045B045B045B045B043B043B043B98
:10508000043B043B043B043B043B043B043B043B28
:10509000043B043B043B043B043B043B043B043B18
:1050A000043B043B043B043B043B043B043B043B08
:1050B000043B043B043B043B043B043B043B043BF8
:1050C000043B043B043B043B043B045B043B043BC8
:1050D000045B043B043B043B043B043B043B043BB8
:1050E000043B043B043B043B043B043B043B045BA8
:1050F000043B045B045C045C047C047B047B047B55
:10510000047B047B045B045C041875DAFFFFFFFF7B
:10511000FFFFFFFFF7FFFFFFFFFFFFFFFFFFFFFFA7
:10512000FFFFFFFFFFFFFFFFFFFFFFFFFFFFFFFF8F
:10513000FFFFFFFFFFFFFFFFFFFFFFFFFFFFFFFF7F
:10514000FFFFFFFFFFFFFFFFFFFFFFFFFFFFC77E28
:105150001C58045B045C047C047B047B047B045BC0
:10516000045B045C045B045B045B043B041B041AE7
:10517000041A041A041A041A041A043A043A043ADF
:10518000043A043A043A043A043A043A043A043A2F
:10519000043A043A043A043A043A043A043A043A1F
:1051A000043A043A043A043A043A041A041A041A6F
:1051B000041A041A041A041A041A041A041A041AFF
:1051C000041A041A041A043A041A043A03FA043AB0
:1051D000043A041A043A041A041A041A041A041A9F
:1051E000041A041A041A041A041A041A041A043BAE
:1051F000043B045B045B045B045B047B047B047B77
:10520000047B047B047B047C041975DAFFFFFFFF39
:10521000FFFFFFFFF7FFFFFFFFFFFFFFFFFFFFFFA6
:10522000FFFFFFFFFFFFFFFFFFFFFFFFFFFFFFFF8E
:10523000FFFFFFFFFFFFFFFFFFFFFFFFFFFFFFFF7E
:10524000FFFFFFFFFFFFFFFFFFFFFFFFFFFFC77E27
:105250001417041B045C047C045B045B047B045B88
:10526000045B0C3B0C3B045B043B043B045B045BB6
:10527000045B045B045B045B045B047B047B045BF6
:10528000047B047B047B047B045B045B045B047B86
:10529000047B047B047B047B047B047B047B047B16
:1052A000047B047B047B047B047B047B045B045B46
:1052B000045B045B045B045B045B045B045B045BF6
:1052C000045B045B045B045B045B045B045B045BE6
:1052D000045B045B045B045B045B045B045B045BD6
:1052E000045B045B045B045B047B049B047B045B46
:1052F000043B045B041B045B045B045B047B047BD6
:10530000047B047B047B047C041975DAFFFFFFFF38
:10531000FFFFFFFFF7FFFFFFFFFFFFFFFFFFFFFFA5
:10532000FFFFFFFFFFFFFFFFFFFFFFFFFFFFFFFF8D
:10533000FFFFFFFFFFFFFFFFFFFFFFFFFFFFFFFF7D
:10534000FFFFFFFFFFFFFFFFFFFFFFFFFFFFC77E26
:105350001C58045B045C047C045B045B047B045BFE
:10536000045B0C3B0C3B041A049C057F057F057F06
:10537000057F057F057F057F057F059F059F059FAD
:10538000059F059F059F059F059F059F059F059FFD
:10539000059F059F059F059F059F059F059F059FED
:1053A000059F059F059F059F059F0D9F0D9F0D9FC5
:1053B0000D9F0D9F0D9F0D9F0D9F0D9F0D9F0D9F8D
:1053C0000D9F0D9F0D9F0D9F0D9F0D9F0D9F0D9F7D
:1053D0000D9F0D9F0D9F0D9F0D9F0D9F0D9F0D9F6D
:1053E0000D9F0D9F0D9F0D9F0D9F057F057F0D5EEE
:1053F0000CDC04190C3B0C3B0C5B045B045B045B96
:10540000047B047B047B047C04196DB9FFFFFFFF60
:10541000FFFFFFFFF7FFFFFFFFFFFFFFFFFFFFFFA4
:10542000FFFFFFFFFFFFFFFFFFFFFFFFFFFFFFFF8C
:10543000FFFFFFFFFFFFFFFFFFFFFFFFFFFFFFFF7C
:10544000FFFFFFFFFFFFFFFFFFFFFFFFFFFFC77E25
:105450001C58045B045C047C045B045B047B047BDD
:10546000045B041B041B049C157F159F159F0D7F77
:10547000055F055F055F055F055F055F055F055F0C
:10548000055F055F055F055F055F055F055F055FFC
:10549000055F055F055F055F055F055F055F055FEC
:1054A000055F055F055F055F055F055F055F055FDC
:1054B000055F055F055F055F055F055F055F055FCC
:1054C000055F055F055F055F055F0D5F0D5F0D5FA4
:1054D0000D5F0D5F0D5F0D5F0D5F0D5F0D5F0D5F6C
:1054E0000D5F0D5F0D5F0D5F055F057F057F057F1C
:1054F000159F0CDC043A043A0C5B045B045B045B10
:10550000047B047B047B047C041875DAFFFFFFFF37
:10551000FFFFFFFEFFFFFFFFFFFFFFFFFFFFFFFF9C
:10552000FFFFFFFFFFFFFFFFFFFFFFFFFFFFFFFF8B
:10553000FFFFFFFFFFFFFFFFFFFFFFFFFFFFFFFF7B
:10554000FFFFFFFFFFFFFFFFFFFFFFFFFFFFC77E24
:105550001C58045B045C045C045C047B047B047BDB
:10556000045B043B041A0D5E159F055F057F057FF4
:10557000055F055F055F055F055F055F055F053F2B
:10558000055F053F053F053F053F055F055F055F7B
:10559000055F055F055F055F055F055F055F055FEB
:1055A000055F055F055F055F055F055F055F055FDB
:1055B000055F055F055F055F055F055F055F055FCB
:1055C000055F055F055F055F055F053F055F055FDB
:1055D000055F055F055F055F055F055F055F055FAB
:1055E000055F055F053F055F053F053F055F057FDB
:1055F000057F159F047B043B045B045B045C045C37
:10560000047C047C047C047C041975DAF7FFFFFF3A
:10561000FFFFFFFFFFFFFFFFFFFFFFFFFFFFFFFF9A
:10562000FFFFFFFFFFFFFFFFFFFFFFFFFFFFFFFF8A
:10563000FFFFF7FEF7FFFFFFFFFEFFFFFFFFF7FF94
:10564000F7FFF7FFF7FFFFFFF7FFEFFFF7FFC77E5B
:105650001C58043C045B045B045C045B047B047B1B
:10566000045B041B041A0D5F0D7F057F057F057F1A
:10567000055F055F055F055F055F053F053F053F6A
:10568000053F053F053F053F053F053F053F053FFA
:10569000053F053F053F053F053F053F053F053FEA
:1056A000053F053F053F053F053F053F053F053FDA
:1056B000053F053F053F053F053F053F053F053FCA
:1056C000053F053F053F053F053F053F053F053FBA
:1056D000053F053F053F053F053F053F053F053FAA
:1056E000053F053F053F053F053F055F0D5F055F32
:1056F000057F0D7F047C041A045B045C045C045C7D
:10570000045C045C045C047C043A65DBEFFFF7FF97
:10571000F7FFEFFFEFFFF7FFF7FFF7FFEFFFFFDF09
:10572000FFFFF7FFF7FFFFFFFFFEFFFFFFFFFFDFBA
:10573000FFFFF7FEF7FEFFDEF7DEE7FFC77E8DF91E
:10574000657865786578659A6578659A65784519AC
:105750000C5A047D049B047B047C045B047B047B67
:10576000045B041B041A0D5E0D9F057F055F055F3A
:10577000055F055F055F053F055F053F053F053F89
:10578000053F053F053F053F053F053F053F053FF9
:10579000053F053F053F053F053F053F053F053FE9
:1057A000053F053F053F053F053F053F053F053FD9
:1057B000053F053F053F053F053F053F053F053FC9
:1057C000053F053F053F053F053F053F053F053FB9
:1057D000053F053F053F053F053F053F053F053FA9
:1057E000053F053F053F053F055F055F055F0D5F11
:1057F000057F0D7F049C03FA045B045C045C045C7D
:10580000045C045C045C045C045B1CDA6578657809
:105810006578657865786578657865788E3BD79E1C
:10582000EFFFF7FEFFBFFFBFFFFFFFFFFFFFFFDF41
:10583000FFFFFFFFFFFEF7FFC77E45192C36141749
:105840000418041904190418041904180C1704186E
:10585000049C047D047C047B047B047B047B047B2C
:10586000045B041B041A0D5E059F057F055F055F41
:10587000055F055F055F053F053F053F053F053FA8
:10588000053F053F053F053F053F053F053F053FF8
:10589000053F051F053F053F053F053F053F053F08
:1058A000053F053F053F053F053F053F053F053FD8
:1058B000053F053F053F053F053F053F053F053FC8
:1058C000053F053F053F053F053F053F053F053FB8
:1058D000053F053F053F053F053F053F053F053FA8
:1058E000053F053F053F053F053F055F055F0D5F30
:1058F000059F0D7F049C041A045B045C045C045C3B
:10590000045C045C045C045C047C0C5A0BF80BF82B
:105910000C19041904180C1904190C170C1744B7A6
:10592000AF3DEFDFFFBFFFDFFFFFFFFFFFFFFFFF29
:10593000FFFFF7DFFFFFD79E44B70C39047B045B02
:10594000045B045C0C3C0C3C0C5B047C045C045C61
:10595000049C047C045C045B045B045B047B047BAC
:10596000045B041B041A0D5E0D9F055F055F055F58
:10597000055F053F053F053F053F053F053F053FE7
:10598000053F053F053F053F053F053F053F053FF7
:10599000051F053F053F053F053F053F053F053F07
:1059A000053F053F053F053F053F053F053F053FD7
:1059B000053F053F053F053F053F053F053F053FC7
:1059C000053F053F053F053F053F053F053F053FB7
:1059D000053F053F053F053F053F053F053F053FA7
:1059E000053F053F053F053F053F053F053F055F77
:1059F000057F0D7F049C041A045B045C045C045C5A
:105A0000045C045C045C045C045B045B049C047C38
:105A1000047C047C045C045C045C045B047A0BF886
:105A20001BF59E9CF7FFF7FFF7FFFFDFFFFFFFFF70
:105A3000FFFEF7FFEFFF6DB90BF8047C045C045B1D
:105A4000047B047B045B045C045C047C045C045CF9
:105A5000047C047B045C045C047B047B047B045BAB
:105A6000043B041A041B0D5E0D9F055F055F055F77
:105A7000055F053F053F053F053F053F053F053FE6
:105A8000053F053F053F053F053F053F053F053FF6
:105A9000053F053F053F053F053F053F053F053FE6
:105AA000053F053F053F053F053F053F053F053FD6
:105AB000053F053F053F053F053F053F053F053FC6
:105AC000053F053F053F053F053F053F053F053FB6
:105AD000053F053F053F053F053F053F053F053FA6
